:020000040800F2
:10000000500E002001010008131300085D120008C3
:100010001113000895030008F924000800000000EF
:100020000000000000000000000000004918000867
:10003000710D000800000000CD140008591F0008D1
:100040001B0100081B0100081B0100081B01000820
:100050001B0100081B0100081B0100081B01000810
:100060001B0100081B0100081B010008BD08000857
:100070001B0100081B0100081B0100081B010008F0
:100080001B0100081B0100081B0100081B010008E0
:10009000592400081B0100081B010008FD0E000880
:1000A0001B0100081B0100081B0100081B010008C0
:1000B0001B0100081B0100081B0100081B010008B0
:1000C0001B0100081B0100081B0100081B010008A0
:1000D0001B010008B91F00081B0100081B010008D4
:1000E000990E00081B01000841220008DFF80CD01F
:1000F00000F018F80048004749250008500E00207D
:100100000648804706480047FEE7FEE7FEE7FEE7B1
:10011000FEE7FEE7FEE7FEE7FEE7FEE7691F0008F1
:10012000ED000008064C074D06E0E06840F00103D2
:1001300094E8070098471034AC42F6D3FFF7DAFF93
:10014000B0270008D027000870B58C1810F8015BA4
:1001500015F0070301D110F8013B2A1106D110F860
:10016000012B03E010F8016B01F8016B5B1EF9D164
:100170002B0705D40023521E0DD401F8013BFAE7EA
:1001800010F8013BCB1A921C03E013F8015B01F855
:10019000015B521EF9D5A142D8D3002070BD0029C1
:1001A000816802D041F0010101E021F0010181608C
:1001B0007047000070B5012190B0084601F0CAF9FF
:1001C0000121480201F0DEF92A4E304600F0BEFB64
:1001D00029480090294801A90024012581E831001F
:1001E00028020494CDE90540800007902020089063
:1001F0000002CDE909046946304600F021FC0121E6
:10020000304600F097FB01220221304600F010FC3E
:100210008DF830500B948DF831504FF46020CDE9BB
:100220000D04154C8DF83C504C3C0BA9204600F0B9
:100230003FF8052301220821204600F05DF8012146
:10024000204600F01DF801212046FFF7A8FF2046B8
:1002500000F08CF8204600F024F80028FAD120465F
:1002600000F093F8204600F015F80028FAD110B0FD
:1002700070BD0000080002404C2401400400002032
:100280000029816802D041F4807101E021F480717D
:1002900081607047014600208968490700D5012028
:1002A0007047014600208968090700D50120704782
:1002B00010B542680E4B0C791A400B6842EA0422D2
:1002C0001343436083680B4A1340D1E9024222433F
:1002D0004C7943EA44031A438260C26A097C22F4DF
:1002E0007002491EC9B242EA0151C16210BD00004C
:1002F000FFFEF0FFFDF7F1FF70B5072409290AD9C9
:10030000C568A1F10A0606EB4606B440A543B34012
:100310001D43C56007E0056901EB4106B440A543F4
:10032000B3401D4305611F23072A09D2446B521EA7
:1003300002EB820293409C4391400C43446370BDA6
:100340000D2A09D2046BD21F02EB820293409C4318
:1003500091400C43046370BDC46A0D3A02EB820203
:1003600093409C4391400C43C46270BD816841F04E
:100370000801816070470029816802D041F4A00122
:1003800001E021F4A00181607047816841F004011F
:1003900081607047FEE7C1B2000A40EA0120704761
:1003A0002DE9F84F0020ADF80000DFF834A14BF63E
:1003B000BF7648F280074A4D4A4C40F68F7848F69F
:1003C0000F7BDFF824910AF1440A31E00888474A9C
:1003D00010F00F00107034D0454901EB8001D1F8C6
:1003E000002CADF80020BDF8002012040BD5D1F888
:1003F000002C02EA0802C1F8002C3E4901EB800003
:1004000050F8040C8047BDF80000000610D53748AE
:100410003749007801EB8001D1F8002C02EA0B0289
:10042000C1F8002C344901EB800050F8040C8047DF
:10043000DAF800004946A9F800000004C6D4BDE877
:10044000F88F28682080208800F0300060802088A5
:1004500000F4405020802868304080F4005080F044
:100460002000384328600888C006286815D400EAB0
:100470000B00286000F0F4FE26E02188890401D5F5
:1004800080F400506188C90626D46188890601D5A8
:1004900080F0200038432860D1E7ADF80000BDF8B7
:1004A0000000000506D5286800EA0800286001F071
:1004B00029FB09E0BDF800000004B9D5286800EA6E
:1004C0000800286000F0CEFF286821883040C90469
:1004D000D3D580F48050D0E780F01000D5E700003D
:1004E000005C00405E0100204E0000204E01002014
:1004F000005000407400002058000020810008488F
:100500000844D0F8001C490409D5D0F8001C48F66E
:100510008F7211404CF280021143C0F8001C7047EA
:1005200000500040810008480844D0F8001C4906EB
:1005300009D5D0F8001C48F68F72114048F2C0026D
:100540001143C0F8001C704700500040810006486D
:100550000144D1F8000C48F68F62104048F2800246
:100560001043C1F8000C704700500040194A10B504
:1005700000211268212804D0202809D0062811D093
:1005800025E0107800F07F00212820D1124917E0E3
:10059000107800F07F00212800D11049104B202056
:1005A00018700DE0107800F07F0001280FD19078CE
:1005B000222802D0212802D009E00A4900E00A4995
:1005C00029B10020916150828847002010BD02208F
:1005D00010BD00005001002011060008E5070008CA
:1005E000900000202D06000805060008014901F0D2
:1005F0004FBB0000A8000020014901F049BB0000EA
:10060000A0000020014901F043BB0000B800002019
:1006100008B104487047044908200968088200208E
:10062000704700009800002050010020014901F0AF
:100630002FBB0000B000002005490968C9780429D3
:1006400001D900207047034A02EBC10101F020BB31
:1006500050010020F000002009B9012801D9022032
:10066000704700207047000009490968097801F0C7
:100670007F01212905D1022805D0222803D00B288B
:1006800003D0022070470020704700F0B9B8000086
:100690005001002070B54348434A00210068817230
:1006A000D2794272C172084601F0D0F84FF400715D
:1006B000002001F099F91021002001F06BF9402190
:1006C000002001F0EFF88021002001F045F9002022
:1006D000FFF73CFF354890F82C10002001F0F2F8AD
:1006E000002001F027F94FF4C0642146012001F0F9
:1006F0007BF94FF4C871012001F02EF94FF4A87175
:10070000012001F0CFF80221012001F035F902218A
:10071000012001F0D7F8E5002946012001F0F2F8A8
:100720002021012001F036F90021042001F05CF9BC
:10073000C021042001F010F92021042001F02AF941
:100740000021042001F0DEF82146022001F04CF9DE
:100750004FF48071022001F0FFF80021022001F027
:10076000D1F82021022001F015F90021032001F029
:100770003BF94FF48871032001F094F840210320E5
:1007800001F0A0F82946032001F0BCF80021032065
:1007900001F000F9002001F061F80549012008602E
:1007A00070BD00005001002096250008C000002008
:1007B000380100200548807A002806D00449052029
:1007C000086001210348FFF7D6BD7047300A0020BA
:1007D00038010020002401400149042008607047CE
:1007E0003801002008B1044870470449082009680E
:1007F000088200207047000098000020500100206F
:10080000034804490068C078486000207047000031
:10081000500100209000002010B51C4C20782028AA
:1008200003D101F0EBFB002020701849491C4878E7
:10083000012800D00020097801290FD0022910D00A
:10084000032913D0042916D0002000F0D9FF01207D
:1008500000F0D6FF022000F0D3FF12E090B100209C
:100860000BE000284FF0010007D10BE000284FF00B
:10087000020002D106E020B10320BDE8104000F0E4
:10088000CBBF0320BDE8104000F0BABF90000020AD
:100890007047000010B500F08BFC0648002400688B
:1008A000847200F037FE01F0D9FD01F0E9FB024847
:1008B000046010BD500100203801002070B51249BD
:1008C00007200870114C124D20682B680209A2EB1A
:1008D0001312042A13D90F4E327882B10E4A1268CD
:1008E000052A0CD1000948700222812001F0D8FDB0
:1008F000012001F067F82068286000203070BDE812
:100900007040022000F00AB84801002004000020D6
:100910001C0000202000002038010020C10002D56A
:100920000249086070470249486070470404024069
:10093000000002400029016802D041F0010102E0FC
:100940004FF6FE72114001607047000001684FF6DB
:10095000FE72114001600021016041608160C16050
:100960003149314A0839904203D1486840F00F00BC
:1009700006E02D4A1432904204D1486840F0F0005D
:1009800048607047284A2832904203D1486840F4B2
:100990007060F5E7244A3C32904203D1486840F445
:1009A0007040EDE7204A5032904203D1486840F44D
:1009B0007020E5E71C4A6432904203D1486840F455
:1009C0007000DDE7184A7832904203D1486840F061
:1009D0007060D5E7154A111F904203D1086840F0B6
:1009E0000F0006E0114A1432904204D1086840F02A
:1009F000F000086070470D4A2832904203D1086821
:100A000040F47060F5E7094A3C32904203D108682F
:100A100040F47040EDE7054A50329042EAD1086850
:100A200040F47020E5E7000008000240080402409E
:100A3000002A026801D00A4300E08A43026070473E
:100A400030B5036847F6F07293430C6A8A68224314
:100A5000D1E904452C4322438C692243CC692243CB
:100A60004C6A22438C6A22431A430260CA6842607D
:100A70000A6882604968C16030BD00002DE9F04716
:100A8000DFF89480254F4FF03009D8F8001001F1BD
:100A90001005088A0E7A08B9042E04D0AC88A0424A
:100AA00015D8042614E01E480178012903D0072632
:100AB000102038802BE01B4A002112681A4B1204C8
:100AC00003EBD2325160A7F8009001701FE00226BC
:100AD000844200D90446A9682046884782460020FF
:100AE00000F058FB01462246504601F007FD214622
:100AF000002000F041FF2888001B288068882044DF
:100B00006880A7F8009009494FF440500880D8F851
:100B100000000672BDE8F08750010020600100204F
:100B20004A010020505C0040006000405E0100204F
:100B30002DE9F047224EDFF88C803027356835F8F4
:100B4000100FA968A9B100B3AC88844200D904464B
:100B50002046884781462888001B288068882044D2
:100B60006880002000F0F6FA01462246484600F070
:100B70009DFC288848B114494FF44050088000215A
:100B8000084600F0F9FEA8F800702888A988884275
:100B900001D3032001E020B1052031680872BDE8CF
:100BA000F087316806200872084900200968084A61
:100BB000090402EBD1314860A8F80070EFE70000AB
:100BC00050010020600100205E010020505C0040C8
:100BD00000600040F8B55D4C5D4D09262068002797
:100BE00029684278062A05D0AAB1082A4DD00A2AD7
:100BF00050D06BE00278520668D18078012804D08A
:100C0000022804D0032804D060E0C96956E0096ACC
:100C100054E0496A52E04288B2BBC288022A55D1E8
:100C200002798ABB0278530601D1838833B102F07E
:100C30007F02012A04D0022A0CD047E045493DE05A
:100C40008A69407900219047F0B92068807A0028AD
:100C5000F4D13BE0417901F00F0001F070020B0686
:100C60003D4901EB8001D1F8001C03D5C1F301110E
:100C7000090102E0C1F301310903384B1B788342BB
:100C800024D90AB90029D9D120E0007840061DD125
:100C9000334913E0027802F07F02012A16D1827AEA
:100CA000A2B1428892B9027982B9C288012A0DD1D3
:100CB0008A6940790021904740B92A4931B12068BA
:100CC0004782816100208847002006E0296820686B
:100CD000096940788847032813D021680A8AA2F559
:100CE0007F43FF3B0BD002280ED06AB10878000684
:100CF00026D5C888009082420AD9088218E00E7270
:100D0000F8BD20680672F8BD4FF008000872F8BD03
:100D10000ED22868144B90F82C00824201D21F702A
:100D200006E0B2FBF0F400FB142008B901201870B3
:100D3000286890F82C008882BDE8F840FFF79EBE36
:100D400003200872094900030880F8BD5001002003
:100D500054010020D51C0008005000401001002064
:100D6000691C0008AD1C00084A0100205E0100203B
:100D70007047000001B5054900980860009801E03F
:100D8000401E00900028FBD108BD00002400002078
:100D900001490120087070472000002010B51C494F
:100DA000012001F06BFB1A494878012800D000208F
:100DB000097801290FD0022910D0032913D0042962
:100DC00016D0002000F01CFD012000F019FD0220CB
:100DD00000F016FD11E088B100200BE000284FF074
:100DE000010007D10AE000284FF0020002D105E01F
:100DF00018B1032000F010FD02E0032000F000FD18
:100E0000BDE810404FF44051012000F07BBD0000D0
:100E10004400002010B50649032001F02FFBC1B2A9
:100E2000034801F051FBBDE81040032000F082BDF3
:100E3000D009002070B51448017801290FD1134C56
:100E40000026236853B11249402B086882B207D9A3
:100E500040304025403B0860236005E0067070BDCF
:100E6000184408609DB226600A48C02110442A46F2
:100E700001F044FB2946042000F07EFDBDE87040EF
:100E8000042000F09FBD00000000002010000020A2
:100E90000C000020D00100202DE9F0414FF4004764
:100EA000384600F063F8002820D0114D2878A8B10A
:100EB00010480068052811D10F4C06202070012031
:100EC00000F0B6FC002670B1667002220A4981204B
:100ED00001F0E6FA012000F075FD2E703846BDE8FD
:100EE000F04100F03DB801206070EEE7BDE8F08110
:100EF0002000002038010020480100202DE9F041A9
:100F00004FF40077384600F031F800281FD0114D1B
:100F10002878A0B110480068052810D10F4C207027
:100F2000022000F085FC002670B1667002220B4999
:100F3000812001F0B5FA012000F044FD2E70384602
:100F4000BDE8F04100F00CB801206070EEE7BDE8AC
:100F5000F08100002000002038010020480100201E
:100F6000014908607047000014040140064A014628
:100F700000201268044B0A4014331B680B4202D055
:100F8000002A00D0012070470004014030B51A4902
:100F90008379026853B30B6893430B600A1D13688F
:100FA0000468A343136002790A4413680468234366
:100FB0001360114A083213680468A3431360131DB9
:100FC0001C680568AC431C604479102C05D0214492
:100FD0000A68006802430A6030BD11680468214352
:100FE0001160196800680143196030BD0079084438
:100FF00001689143016030BD0004014008B5012142
:10100000282000F0BFFA4FF40070ADF80000032074
:101010008DF8020014208DF803006946064800F0A0
:101020000FF80120ADF8000000208DF8030069469C
:10103000024800F005F808BD00140140000C014012
:10104000F0B5CA78002502F00F03D20601D58A78E0
:1010500013430A784FF00F0E12F0FF0F4FF001020A
:101060001CD004680F8802FA05F63740B74211D148
:101070004FEA850C0EFA0CF724EA070703FA0CF482
:101080003C43CF78282F02D0482F02D002E046619F
:1010900000E006616D1C082DE4D304600C88FF2C71
:1010A0001ED944685FF0000606F1080702FA07F54A
:1010B0000F882F40AF420FD14FEA860C0EFA0CF783
:1010C000BC4303FA0CF73C43CF78282F00D145618D
:1010D000CF78482F00D10561761C082EE4D34460F8
:1010E000F0BD0000F0B5144C002801DAE36900E01F
:1010F0006368420D120185B2C0F301579540C0F3F9
:101100000346032F05D0C2020AD50322B2409343FF
:1011100007E023F07062636823F07063636002E0AD
:10112000AB4343F0706201B12A43002801DAE26167
:10113000F0BD6260F0BD00000000014002460020EA
:1011400092680A4200D001207047416170470161F6
:10115000704700000549096889B201EBC0000449E5
:1011600001EB4000008980B270470000505C0040F5
:10117000006000400549096889B201EBC0000449DC
:1011800001EB40008089C0F309007047505C0040CB
:10119000006000400449096889B201EBC0000349BE
:1011A00031F8100080B27047505C00400060004091
:1011B0000A4810B50168001D0468001D0068081881
:1011C0000BD00822064900F079F805492046042290
:1011D000BDE81040103100F071B810BDE8F7FF1FF6
:1011E0002A00002070B51B48017801290AD0C26886
:1011F0000021B2F5006F00D1C160D0E90223934213
:1012000001D1017070BD02D9C3F5006201E0A2EB0B
:10121000030214460261402A9AB205D940254033A0
:10122000403CC0E9033403E02344C0E90331A5B2E4
:10123000012101700848C02110442A4601F05EF9DE
:101240002946042000F098FBBDE87040042000F01F
:10125000B9BB000000000020D0010020FEE7000024
:1012600010B5134C2068017A022904D0042902D059
:10127000062905D015E0FFF701FC2068007A11E08F
:101280004178052909D10178490606D1C07800F0D6
:10129000E5FA08480068006A8047074800688068E7
:1012A0008047082021680872BDE8104000F010B99E
:1012B000500100205801002054010020F0B5002307
:1012C0000A24302537261F4611E000BFB4EB107FFB
:1012D00002D905EB107C01E006EB107C01F813C08D
:1012E00001EB430C00015B1C8CF80170DBB29342F4
:1012F000ECD3F0BD0448817A044809B1052100E02F
:101300000121016000F030BE300A002038010020C9
:10131000FEE770477047000070B50F23C47801786E
:101320000122F4B1144C2468457804F4E064C4F557
:10133000E064240AC4F10406E3408478B5401C400C
:101340002C4301F1E021230181F80034007800F002
:101350001F018A404009800000F1E020C0F8002110
:1013600070BD01F01F0082404809800000F1E020BC
:10137000C0F8802170BD00000CED00E00249084378
:1013800002490860704700000000FA050CED00E01B
:1013900070B52F4D2868017844784A0606D001F0D0
:1013A0007F00012828D002282BD035E0092C06D058
:1013B000052C07D0032C0ED0012C14D02CE000F00B
:1013C000D3FC28E0C1787F292ED8817861BB818841
:1013D00051BB807A27E0C17801291DD18088D8B916
:1013E00000F0DEFC17E0C178012915D1818899B998
:1013F000407A80060AD40FE00B2C0DD100F026FDB8
:1014000009E0012C02D0032C03D005E000F0AEFB74
:1014100001E000F0D7FC58B10E492046096849693F
:101420008847032802D018B108200DE009200BE0FE
:10143000094A062000211268084B120403EBD2323D
:101440005160074A302111802968087270BD000080
:101450005001002054010020505C0040006000401A
:101460006001002010B50F4C2068007A022811D0CE
:1014700004280FD0032804D0052802D0072805D05F
:1014800008E0FFF755FB2068007A04E00648006892
:10149000C0688047082021680872BDE8104000F04D
:1014A00017B800005001002054010020064B521CC8
:1014B000520803EB410105D031F8043B20F8023B10
:1014C000521EF9D1704700000060004070470000D4
:1014D0000C4810B590F82C10002000F0F3F90A48E1
:1014E0000068007A082802D0092809D006E00749D8
:1014F0004FF480500880064910200880002010BD5D
:10150000012010BDC0000020500100205E0100201D
:101510006001002010B5012000F096FE0648012170
:1015200001600021054A0160031D19604FF4E0517C
:1015300011800160002010BD405C00405C01002073
:10154000034A516821F44041014351607047000053
:1015500000100240044A0029516901D0014300E013
:10156000814351617047000000100240044A002985
:10157000D16901D0014300E08143D161704700008F
:1015800000100240044A0029916901D0014300E0A3
:1015900081439161704700000010024030B51F493F
:1015A0004A6812F00C031E4A03D0042B01D0082B0A
:1015B00021D002604A680F231A4C03EA1212A35C7E
:1015C0000268DA4042604B68072505EA1323E35CB2
:1015D00022FA03F383604B6805EAD323E35CDA4025
:1015E000C2604968032303EA9131231F595CB2FBAF
:1015F000F1F1016130BD4A684B6802F470124FF09E
:10160000020413F4803F04EB924202D04B689B0328
:1016100001D5054B00E0024B5A43CAE700100240D7
:1016200000127A006601002000093D000149C1F85E
:10163000D8007047000042422DE9F041214C0728B4
:1016400000D0207022781F4D0627052104261E4851
:10165000062A0BD2DFE802F0030C11161E27686879
:1016600010B12170BDE8F08100F030F82770F9E783
:1016700000F02CF82670012022E002206070032088
:101680002070EFE76078401E607060780028E9D134
:101690002670E7E7026892B242F010020260217001
:1016A0000A206070DEE76178491E61706178002968
:1016B000D8D1016889B221F01001016027700020A3
:1016C0006860CFE740010020405C004010B5064C48
:1016D000206880B220F004002060FFF70BFE4FF47A
:1016E0003F40206010BD0000405C0040074800689B
:1016F000052809D106484168491C4160062903D1E3
:1017000000214160FFF76EBD7047000038010020E6
:1017100044000020F8B50E46044627492648083103
:1017200050F8240051F82410084340F00100012132
:10173000FFF728FF204D083DBCB301210820FFF72B
:10174000D1FC55F824000121FFF710FF18208DF877
:10175000030019486946183830F81400ADF8000045
:1017600003208DF80200154850F82400FFF768FCAC
:1017700004208DF8030010486946143830F814002E
:10178000ADF800000D48083050F82400FFF758FC71
:101790000A4D3146083D55F8240000F0CDFC55F8BF
:1017A0002400012100F020FCF8BDFFE7012128689A
:1017B000FFF7E8FECAE700002027000880010020AC
:1017C00038B504460C48012150F82400FFF7DAFE32
:1017D00009486946203830F81400ADF800001020A0
:1017E0008DF8030003208DF80200044850F824000F
:1017F000FFF726FC38BD00003027000890010020CC
:101800000349044A31F8101052F820004161704732
:1018100010270008900100200349044A31F81010F5
:1018200052F8200001617047102700089001002045
:101830000349044A31F8101052F82000FFF77EBC2B
:1018400040270008A001002070470000024920F056
:101850000700086070470000505C0040F0B50E497A
:101860000E4D48F68F770B78002148F2800C0BE084
:10187000CEB205EB8604D4F8002C3A40324342EA5B
:101880000C02C4F8002C491C9942F1D3044940F0E1
:1018900080000860F0BD00001001002000500040F2
:1018A0004C5C0040054A21F00101126892B202EB43
:1018B000C000034A02EB400081607047505C00406A
:1018C000006000400D4A12683E2992B202EBC0004F
:1018D0000B4A02EB400209D94809C90601D1401E52
:1018E00080B24FF4004141EA802004E04808C90773
:1018F00000D0401C8002106070470000505C004027
:101900000C60004082000A480244D2F8000C4BF6FA
:101910008F731840CB0401D580F48050890401D521
:1019200080F4005048F280010843C2F8000C704770
:1019300000500040810007480144D1F8000C4BF6EC
:101940008F72104080F4405048F280021043C1F87A
:10195000000C704700500040054A21F00101126858
:1019600092B202EBC000034A42F810107047000028
:10197000505C004000600040044A126892B202EBE2
:10198000C000034A02EB400041607047505C0040D9
:101990000060004082000A480244D2F8000C48F679
:1019A000BF731840CB0601D580F01000890601D521
:1019B00080F0200048F280010843C2F8000C704714
:1019C00000500040810007480144D1F8000C48F65F
:1019D000BF72104080F0300048F280021043C1F81E
:1019E000000C704700500040820005480244D2F8C5
:1019F000000C48F68F1318400843C2F8000C7047DB
:101A0000005000400CB50021264801910091026869
:101A100042F4803202604FF4A063026802F40032A4
:101A20000092019A521C0192009A12B9019A9A42AC
:101A3000F3D10268920333D5012100911A490A6853
:101A400042F010020A600A6822F003020A600A6883
:101A500042F002020A6041684160416841604168A9
:101A600041F480614160416821F47C11416041682A
:101A700041F4E8114160016841F080710160016842
:101A80008901FCD5416821F003014160416841F0C2
:101A9000020141604168C1F381010229FAD10CBD04
:101AA00000910CBD001002400020024010B5012141
:101AB0002020FFF767FD4FF44040FFF741FDFFF79F
:101AC0009DFA4FF480242046FFF74AFA0749082080
:101AD0000C604871012088710846FFF757FA002012
:101AE000FFF76EFEBDE81040FEF764BB1400002057
:101AF00010B50020FFF79AFD0121BDE81040C80590
:101B0000FFF734BD70B516480068174D0004C10BCF
:101B100014480144098989B200EB41042868017A1C
:101B200009290FD02178017061784170A088FEF7F3
:101B300032FC296848802089FEF72DFC29688880BE
:101B4000A089C880286801210172C08828B1FFF7E8
:101B500041F8BDE87040FFF7BBBCFFF719FCF8E7A0
:101B6000505C004000600040500100202DE9F04131
:101B700038480068017811F07F0102D0022905D0B1
:101B800066E0417A01F0DF0141724EE041880029B0
:101B90005ED10179F1BB4179304D21F080040A0614
:101BA00005EB84022C4BD2F8002C03D5C2F30112B2
:101BB000120102E0C2F3013212031E782346A6424C
:101BC00046D93AB3807A28B308064FEA84000ED586
:101BD0002844D0F8000CC0F30110012821D1184688
:101BE000FEF7A0FC20463021FFF7D4FE19E046198D
:101BF000D6F8000CC0F30130012812D14BF68F77D4
:101C000048F28008A4B11846FEF778FCD6F8000C1C
:101C1000384000E01CE080F4405040EA0800C6F87C
:101C2000000C0F480068406980470020BDE8F08143
:101C30000C4890F82C100020FFF744FED5F8000C5B
:101C4000384080F4405040EA0800C5F8000CE8E74E
:101C50000220EBE75001002010010020005000405E
:101C600058010020C000002010B5074C30B10748D3
:101C700000680068804720680A3010BD2168012094
:101C80000882002010BD00005001002058010020F3
:101C9000054A13685A8A10B108681044704788884A
:101CA000801A1882002070475001002010B5074CA0
:101CB00030B1074800688068804720680C3010BD4C
:101CC000216801200882002010BD00005001002082
:101CD00058010020204910B5096860B11F48002252
:101CE00002800A7853060AD002F07F02012A16D039
:101CF000022A16D001E002200882002010BD497A95
:101D00008A06027802D542F0020201E002F0FD02EA
:101D100049060270D1B211D401F0FE0110E00F4863
:101D200010BD4A79110713060D4A02EB9161D1F8F3
:101D3000001C07D5C1F3011106E0017841F0010153
:101D4000017003E0C1F301310129F6D005480068B4
:101D500000698047E3E70000500100204C010020AB
:101D600000500040580100200A4810B500680A4A97
:101D7000C1785278914203D882780AB982880AB130
:101D8000022010BD8172054800684068804700202D
:101D900010BD00005001002010010020580100205B
:101DA000064810B50068417A41F0200141720448AC
:101DB0000068C0698047002010BD0000500100206D
:101DC0005801002070B51D481D4D0368597921F058
:101DD000800005EB80000C06D0F8004C21F080025A
:101DE00003D5C4F30114240102E0C4F30134240335
:101DF000144D2D78954210D95A8872B96CB19A7ADF
:101E00005AB10906D0F8001C48F2800207D548F6FE
:101E1000BF73194081F0100106E0022070BD4BF63F
:101E20008F73194081F480511143C0F8001C06489B
:101E3000006880698047002070BD000050010020CC
:101E400000500040100100205801002010B50E4C39
:101E50000E4A20681268C1789269407990472168DB
:101E60008A7A22B118B9087908B9887808B10220AD
:101E700010BD07480068C068804720684179C1727A
:101E8000C1780173002010BD5001002054010020D2
:101E900058010020F8B52B49002000900A682A4B11
:101EA0002A4C92B203EB8005D5F8005CADB244F841
:101EB0002050401C0828F5D342F48060086040F0B0
:101EC0000100086020F001050D601E4A121D106817
:101ED0004005FCD54FF6FF301060002054F820601C
:101EE00003EB8007B6B2C7F8006C401C0828F5D396
:101EF00045F008000860086880B240F004000860FF
:101F0000134B18680090186820F0030040F001009F
:101F100018601048046844F0040404601468E40481
:101F200001D430BF09E04EF6FF7414600A6892B223
:101F300022F008020A6000991960016821F004018A
:101F40000160F8BD405C004000500040100A0020D5
:101F50000070004010ED00E002480168491E016079
:101F600070470000240000200F4810B5016841F0C0
:101F70000101016041680D4A1140416001680C4A4D
:101F800011400160016821F480210160416821F461
:101F9000FE0141604FF41F018160FFF733FD0549E9
:101FA0004FF00060086010BD001002400000FFF814
:101FB000FFFFF6FE08ED00E010B50A4C40F2255197
:101FC000204600F082F808B100F014F908212046FC
:101FD00000F074F8002804D02046BDE8104000F05E
:101FE00001B910BD003801400029818902D041F4B7
:101FF000005101E021F40051818170471E4A10B563
:1020000013791E48002123B1012B04D0022B1CD1CF
:1020100004E0C18005E04FF4405301E04FF4005369
:10202000C380537923B1012B04D0022B0DD104E0DE
:10203000018105E04FF4806301E04FF4C063038148
:102040009379072B0BD0082B03D000F019F8002050
:1020500010BD03891BB14FF48053838000E0818061
:102060001268026081810C21418104490020FFF740
:1020700051FB012010BD000098000020C00100208D
:102080000C4810B54FF41651016000218180C180C9
:102090004FF4C062028181810C2141810146002000
:1020A000FFF738FBBDE81040012240F225510248FD
:1020B00000F02AB8C001002000380140024600208C
:1020C00012880A4200D00120704730B501F01F028B
:1020D00001240025C1F3421304FA02F2012B0FD0B0
:1020E000022B0FD0838A4FEA11210088134204FA91
:1020F00001F400EA040001D000B10125284630BDFA
:102100008389F0E7038AEEE710B5C1F3421301F0CB
:102110001F040121A140012B07D0022B07D014304E
:10212000002A026805D00A4304E00C30F8E71030BA
:10213000F6E78A43026010BD30B50446008A85B0D8
:102140000D464CF6FF710840E98801432182A189C0
:102150004EF6F3100140A8882A8910436A890A4381
:102160001043A081A08A4FF6FF410840A98901438E
:10217000A1826846FFF712FA1948844201D10398F8
:1021800000E00298A189090400EBC00101EB0010F6
:10219000296801D5490000E08900B0FBF1F0642214
:1021A000B0FBF2F109010B096FF018056B4300EB6E
:1021B0008300A3891D044FF0320306D503EBC00052
:1021C000B0FBF2F000F0070005E003EB0010B0FBFD
:1021D000F2F000F00F000843208105B030BD000090
:1021E000003801408088C0F308007047C1F308013F
:1021F0008180704770B50E480F4D104C81790D48A5
:10220000072902D0082905D008E0FFF7EBFF00F00E
:102210007F0001E0FFF7E6FFA1686854A068401C5A
:10222000A060B0F5006F01D10020A06070BD00007B
:102230009800002000380140D0010020000000205C
:102240004FF48020FEF78CBE044A00284FF4007142
:10225000104601D0FEF779BFFEF779BF00140140A8
:1022600006480549022201600A72064A0449C0E98B
:102270000112086800470000300A002050010020C9
:10228000C000002014010020F8B54FF4A060FFF753
:1022900075F814208DF8000002268DF801600024E6
:1022A0008DF8024001258DF803506846FFF734F899
:1022B0002A208DF800008DF801408DF80350684603
:1022C000FFF72AF825208DF800008DF801506846A8
:1022D000FFF722F817208DF800008DF801406846BE
:1022E000FFF71AF828208DF800008DF801406846A5
:1022F000FFF712F80B208DF800008DF8016068469A
:10230000FFF70AF8F8BD00002DE9F0414C4E88B007
:10231000002430684B4D688068884B4F39880840EE
:10232000000401D5FEF73CF8688839884FF6FF387D
:102330000840400504D5C6F80080444840688047FE
:10234000698838880140890402D54DF6FF713160F3
:1023500069880140C80405D54EF6FF703060002042
:10236000FFF76AF968883988084000050BD53848B6
:10237000007810B1FFF78EFD02E00220FFF75CF954
:102380004FF2FF703060688839880840800507D5B3
:102390004FF6FF5030602878401C2870FFF7A6F9F0
:1023A000688839880840C00546D54FF6FF60306020
:1023B0002348001D00684FF00002000438D568680B
:1023C000401C68606868032833D91D48001F0168F5
:1023D00009072ED4016889B2A9601E494FEA0D038E
:1023E00001EB8407D7F8007CBFB243F82470641C6B
:1023F000082CF5D3AC6844F00104AC60AC68A4B21E
:102400000460AC6824F00104AC60AC68A4B2046061
:1024100030684005FCD5C6F80080002053F8204005
:1024200001EB8006A4B2C6F8004C401C0828F5D386
:102430006A600720FFF700F908B0BDE8F0810000EE
:10244000445C00404C0000205C010020C0000020E3
:102450003C01002000500040FFF756BF0549002016
:10246000086005494FF43F4008800249091F086091
:1024700000207047445C00405C01002070B500F013
:102480007F060D463046FEF775FE04463046FEF7E1
:1024900061FE014622462846FFF708F8204670BD37
:1024A00070B500F07F0514460E462846FEF772FE12
:1024B0000146A2B2304600F021F8A1B22846FFF74B
:1024C0005BFA002070BD00002DE9F0410E46074682
:1024D0000024084D0AE0395D2846FFF787FE802179
:1024E0002846FFF7EBFD0028F9D0641CB442F2D374
:1024F000BDE8F08100380140FEE70000094B10B54F
:10250000521C520803EB41010AD000BF10F8013BF6
:10251000521E10F8014B43EA042321F8043BF5D185
:1025200010BD00000060004002E008C8121F08C192
:10253000002AFAD170477047002001E001C1121F44
:10254000002AFBD1704700000624FFF7AFFA0C4DBC
:102550000BE00020FFF760F92846FEF70BFC002097
:10256000FFF74EF92846FEF705FC641EE4B2F0D2F0
:10257000FFF78AFEFFF7BCFAFFF772FEFEE70000E6
:1025800020A1070012010002EF020140830440571E
:1025900000020102030109027300030100C03208B6
:1025A0000B00020202010009040000010202010006
:1025B0000524001001052401000104240202052461
:1025C000060001070582030800FF09040100020A52
:1025D00000000007050302400000070584024000D8
:1025E00000080B02010300000509040200020300B9
:1025F000000009211001000122A300070581030248
:1026000000200705010302002006FF000901A101C7
:10261000850109011500250175089501B182850123
:1026200009019182850209021500250175089501AD
:10263000B1828502090291828503090315002501F3
:1026400075089501B1828503090391828504090407
:102650001500250175089501B18285040904918250
:10266000850509051500250175018182090575019A
:10267000B1827507818385057507B18385060906D3
:10268000150025017501818209067501B182750762
:10269000818385067507B18385070907150026FF25
:1026A000007508818285070907B182C00403090407
:1026B0002603530054004D006900630072006F0050
:1026C00065006C0065006300740072006F006E00AE
:1026D0006900630073003203530054004D0033005F
:1026E000320020005600690072007400750061001D
:1026F0006C00200043004F004D00200050006F0090
:10270000720074002000200000022000000440003D
:1027100000208000000100020040000000000200D4
:102720000400000020000000040000002000000061
:102730001000000010000000100000001000000059
:1027400001000080000201000200000100400010B2
:102750000400000008000000080000004000000025
:1027600040000000200000002000000020000000C9
:102770000100008000020100020000010040001082
:102780000000010001000400040003000300030036
:1027900000000F0009000000010008000E000C00FE
:1027A0000600280017000600070017002800280070
:1027B000D027000800000020C001000048010008E8
:1027C0008C280008C0010020900C0000382500086B
:1027D00001207201141A03531254124D12330225B0
:1027E0003213910D4C081513048B350E0C29046A15
:1027F0009D1CD9182904912AC27A12081384253302
:1028000008121A960832731309263308A31AA8105F
:102810003209139508140895061B0819081A910423
:10282000136D051B0869101A59041AF90C1AED04E6
:102830001A390C4132401AAC4032041AB008322620
:102840001AD60829D2222833201A1A057729880B8C
:1028500010B5079C69041AD91C4129A201224C0217
:1028600004062E2C020304043B0607B91438014069
:102870001A44931A08081A14046908DA100429186B
:0C2880005A0C045A1804292859040000BE
:04000005080000ED02
:00000001FF
