:020000040800F2
:10000000000E002001010008531200089D11000895
:1000100051120008950300089B230008000000000F
:1000200000000000000000000000000005180008AB
:10003000210D0008000000000D1400081D1F00081D
:100040001B0100081B0100081B0100081B01000820
:100050001B0100081B0100081B0100081B01000810
:100060001B0100081B0100081B0100086D080008A7
:100070001B0100081B0100081B0100081B010008F0
:100080001B0100081B0100081B0100081B010008E0
:100090002D2300081B0100081B010008290E000881
:1000A0001B0100081B0100081B0100081B010008C0
:1000B0001B0100081B0100081B0100081B010008B0
:1000C0001B0100081B0100081B0100081B010008A0
:1000D0001B0100081B0100081B0100081B01000890
:1000E000C50D00081B0100082D210008DFF80CD009
:1000F00000F018F80048004721240008000E0020F6
:100100000648804706480047FEE7FEE7FEE7FEE7B1
:10011000FEE7FEE7FEE7FEE7FEE7FEE72D1F00082D
:10012000ED000008064C074D06E0E06840F00103D2
:1001300094E8070098471034AC42F6D3FFF7DAFF93
:10014000742600089426000870B58C1810F8015B1E
:1001500015F0070301D110F8013B2A1106D110F860
:10016000012B03E010F8016B01F8016B5B1EF9D164
:100170002B0705D40023521E0DD401F8013BFAE7EA
:1001800010F8013BCB1A921C03E013F8015B01F855
:10019000015B521EF9D5A142D8D3002070BD0029C1
:1001A000816802D041F0010101E021F0010181608C
:1001B0007047000070B5012190B0084601F06AF95F
:1001C0000121480201F07EF92A4E304600F096FBEC
:1001D00029480090294801A90024012581E831001F
:1001E00028020494CDE90540800007902020089063
:1001F0000002CDE909046946304600F0F9FB01210F
:10020000304600F06FFB01220221304600F0E8FB8F
:100210008DF830500B948DF831504FF46020CDE9BB
:100220000D04154C8DF83C504C3C0BA9204600F0B9
:100230003FF8052301220821204600F05DF8012146
:10024000204600F01DF801212046FFF7A8FF2046B8
:1002500000F08CF8204600F024F80028FAD120465F
:1002600000F093F8204600F015F80028FAD110B0FD
:1002700070BD0000080002404C2401400400002032
:100280000029816802D041F4807101E021F480717D
:1002900081607047014600208968490700D5012028
:1002A0007047014600208968090700D50120704782
:1002B00010B542680E4B0C791A400B6842EA0422D2
:1002C0001343436083680B4A1340D1E9024222433F
:1002D0004C7943EA44031A438260C26A097C22F4DF
:1002E0007002491EC9B242EA0151C16210BD00004C
:1002F000FFFEF0FFFDF7F1FF70B5072409290AD9C9
:10030000C568A1F10A0606EB4606B440A543B34012
:100310001D43C56007E0056901EB4106B440A543F4
:10032000B3401D4305611F23072A09D2446B521EA7
:1003300002EB820293409C4391400C43446370BDA6
:100340000D2A09D2046BD21F02EB820293409C4318
:1003500091400C43046370BDC46A0D3A02EB820203
:1003600093409C4391400C43C46270BD816841F04E
:100370000801816070470029816802D041F4A00122
:1003800001E021F4A00181607047816841F004011F
:1003900081607047FEE7C1B2000A40EA0120704761
:1003A0002DE9F84F0020ADF80000DFF834A14BF63E
:1003B000BF7648F280074A4D4A4C40F68F7848F69F
:1003C0000F7BDFF824910AF1440A31E00888474A9C
:1003D00010F00F00107034D0454901EB8001D1F8C6
:1003E000002CADF80020BDF8002012040BD5D1F888
:1003F000002C02EA0802C1F8002C3E4901EB800003
:1004000050F8040C8047BDF80000000610D53748AE
:100410003749007801EB8001D1F8002C02EA0B0289
:10042000C1F8002C344901EB800050F8040C8047DF
:10043000DAF800004946A9F800000004C6D4BDE877
:10044000F88F28682080208800F0300060802088A5
:1004500000F4405020802868304080F4005080F044
:100460002000384328600888C006286815D400EAB0
:100470000B00286000F094FE26E02188890401D555
:1004800080F400506188C90626D46188890601D5A8
:1004900080F0200038432860D1E7ADF80000BDF8B7
:1004A0000000000506D5286800EA0800286001F071
:1004B0000BFB09E0BDF800000004B9D5286800EA8C
:1004C0000800286000F06EFF286821883040C904C9
:1004D000D3D580F48050D0E780F01000D5E700003D
:1004E000005C00404A0100203E0000203A0100204C
:1004F00000500040640000204800002081000848AF
:100500000844D0F8001C490409D5D0F8001C48F66E
:100510008F7211404CF280021143C0F8001C7047EA
:1005200000500040810008480844D0F8001C4906EB
:1005300009D5D0F8001C48F68F72114048F2C0026D
:100540001143C0F8001C704700500040810006486D
:100550000144D1F8000C48F68F62104048F2800246
:100560001043C1F8000C704700500040224910B5FC
:100570000A68918841BB0021204B212804D0202803
:1005800009D0062810D014E0147804F07F04212C40
:100590000FD11B490DE0147804F07F04212C00D109
:1005A000184920241C7004E0147804F07F04012C06
:1005B00005D0147804F07F04212C0AD013E0907841
:1005C000222802D0212802D014E00F490BE00F4965
:1005D00009E0032802D0092805D101E00C4902E016
:1005E0000C490920187029B1002091615082884778
:1005F000002010BD022010BD3C0100208000002022
:10060000C9230008E5230008590600083106000840
:100610003D060008AD070008014901F01BBB0000C2
:1006200098000020014901F015BB00009000002057
:10063000014901F00FBB0000A800002008B10448E8
:1006400070470449012009680882002070470000B3
:10065000840000203C010020014901F0FBBA0000A9
:10066000A000002005490968C978042901D90020A3
:100670007047034A02EBC10101F0ECBA3C010020D3
:10068000E000002009B9002800D0022070470000D7
:1006900006490968097801F07F01212901D10B2859
:1006A00001D00220704700F075B800003C01002026
:1006B000274810B5006800218172C1722549C979A7
:1006C0004172002001F0A0F84FF40071002001F009
:1006D00069F91021002001F03BF91821002001F0F8
:1006E000BFF85821002001F015F90020FFF72EFF78
:1006F000194890F82C10002001F0C2F8002001F0F9
:10070000F7F84FF4C061012001F04CF94FF480710B
:10071000012001F0FFF84FF48271012001F0A0F8F0
:100720000221012001F006F90221012001F0A8F8C0
:100730004FF44051012001F0C3F82021012001F0C5
:1007400007F9002001F068F804490120086010BD95
:100750003C0100206E240008B00000202801002089
:1007600006480068807A002806D005490520086000
:1007700001210448FFF7FFBD704700003C01002045
:10078000280100200024014001490420086070472E
:1007900028010020034804490068C0784860002010
:1007A000704700003C0100208000002008B1044890
:1007B0007047044902200968088200207047000041
:1007C000810000203C01002010B51C4C207820281E
:1007D00003D101F0DDFB002020701849491C487846
:1007E000012800D00020097801290FD0022910D05B
:1007F000032913D0042916D0002000F08DFF01201A
:1008000000F08AFF022000F087FF12E090B1002084
:100810000BE000284FF0010007D10BE000284FF05B
:10082000020002D106E020B10320BDE8104000F034
:100830007FBF0320BDE8104000F06EBF80000020A5
:100840007047000010B500F08FFC064800240068D7
:10085000847200F0FFFD01F06BFD01F0DBFB02484C
:10086000046010BD3C0100202801002070B5124931
:1008700007200870114C124D20682B680209A2EB6A
:100880001312042A13D90F4E327882B10E4A12681D
:10089000052A0CD1000948700222812001F06AFD6E
:1008A000012001F06DF82068286000203070BDE85C
:1008B0007040022000F00AB8380100200400002037
:1008C000140000201800002028010020C10002D5DB
:1008D00002490860704702494860704704040240BA
:1008E000000002400029016802D041F0010102E04D
:1008F0004FF6FE72114001607047000001684FF62C
:10090000FE72114001600021016041608160C160A0
:100910003149314A0839904203D1486840F00F000C
:1009200006E02D4A1432904204D1486840F0F000AD
:1009300048607047284A2832904203D1486840F402
:100940007060F5E7244A3C32904203D1486840F495
:100950007040EDE7204A5032904203D1486840F49D
:100960007020E5E71C4A6432904203D1486840F4A5
:100970007000DDE7184A7832904203D1486840F0B1
:100980007060D5E7154A111F904203D1086840F006
:100990000F0006E0114A1432904204D1086840F07A
:1009A000F000086070470D4A2832904203D1086871
:1009B00040F47060F5E7094A3C32904203D1086880
:1009C00040F47040EDE7054A50329042EAD10868A1
:1009D00040F47020E5E700000800024008040240EF
:1009E000002A026801D00A4300E08A43026070478F
:1009F00030B5036847F6F07293430C6A8A68224365
:100A0000D1E904452C4322438C692243CC6922431B
:100A10004C6A22438C6A22431A430260CA684260CD
:100A20000A6882604968C16030BD00002DE9F04766
:100A3000DFF89480254F4FF03009D8F8001001F10D
:100A40001005088A0E7A08B9042E04D0AC88A0429A
:100A500015D8042614E01E480178012903D0072682
:100A6000102038802BE01B4A002112681A4B120418
:100A700003EBD2325160A7F8009001701FE002260C
:100A8000844200D90446A96820468847824600204F
:100A900000F05CFB01462246504601F07FFC2146F7
:100AA000002000F047FF2888001B28806888204429
:100AB0006880A7F8009009494FF440500880D8F8A2
:100AC00000000672BDE8F0873C0100204C010020C8
:100AD0004E010020505C0040006000404A010020B0
:100AE0002DE9F047224EDFF88C803027356835F845
:100AF000100FA968A9B100B3AC88844200D904469C
:100B00002046884781462888001B28806888204422
:100B10006880002000F0FAFA01462246484600F0BC
:100B200065FC288848B114494FF4405008800021E2
:100B3000084600F0FFFEA8F800702888A9888842BF
:100B400001D3032001E020B1052031680872BDE81F
:100B5000F087316806200872084900200968084AB1
:100B6000090402EBD1314860A8F80070EFE70000FB
:100B70003C0100204C0100204A010020505C004054
:100B800000600040F8B55D4C5D4D092620680027E7
:100B900029684278062A05D0AAB1082A4DD00A2A27
:100BA00050D06BE00278520668D18078012804D0DA
:100BB000022804D0032804D060E0C96956E0096A1D
:100BC00054E0496A52E04288B2BBC288022A55D139
:100BD00002798ABB0278530601D1838833B102F0CF
:100BE0007F02012A04D0022A0CD047E045493DE0AB
:100BF0008A69407900219047F0B92068807A0028FE
:100C0000F4D13BE0417901F00F0001F070020B06D6
:100C10003D4901EB8001D1F8001C03D5C1F301115E
:100C2000090102E0C1F301310903384B1B7883420B
:100C300024D90AB90029D9D120E0007840061DD175
:100C4000334913E0027802F07F02012A16D1827A3A
:100C5000A2B1428892B9027982B9C288012A0DD123
:100C60008A6940790021904740B92A4931B120680A
:100C70004782816100208847002006E029682068BB
:100C8000096940788847032813D021680A8AA2F5A9
:100C90007F43FF3B0BD002280ED06AB108780006D4
:100CA00026D5C888009082420AD9088218E00E72C0
:100CB000F8BD20680672F8BD4FF008000872F8BD54
:100CC0000ED22868144B90F82C00824201D21F707B
:100CD00006E0B2FBF0F400FB142008B90120187004
:100CE000286890F82C008882BDE8F840FFF79EBE87
:100CF00003200872094900030880F8BD3C01002068
:100D000040010020991C0008005000400001002014
:100D10002D1C0008711C00084E0100204A01002013
:100D20007047000001B5054900980860009801E08F
:100D3000401E00900028FBD108BD00001C000020D0
:100D400001490120087070471800002010B51C49A7
:100D5000012001F0FDFA1A494878012800D000204E
:100D6000097801290FD0022910D0032913D00429B2
:100D700016D0002000F0D0FC012000F0CDFC0220B5
:100D800000F0CAFC11E088B100200BE000284FF011
:100D9000010007D10AE000284FF0020002D105E06F
:100DA00018B1032000F0C4FC02E0032000F0B4FC02
:100DB000BDE810404FF44051012000F081BD00001B
:100DC0003A0000202DE9F0414FF40047384600F08A
:100DD00095F8002820D0114D2878A8B11048006857
:100DE000052811D10F4C06202070012000F0ACFC2A
:100DF000002670B1667002220A49812001F0BAFA19
:100E0000012000F0BDFD2E703846BDE8F04100F035
:100E10003DB801206070EEE7BDE8F08118000020C9
:100E200028010020380100202DE9F0414FF400771F
:100E3000384600F063F800281FD0114D2878A0B183
:100E400010480068052810D10F4C2070022000F0D7
:100E50007BFC002670B1667002220B49812001F0F4
:100E600089FA012000F08CFD2E703846BDE8F04173
:100E700000F00CB801206070EEE7BDE8F0810000E2
:100E800018000020280100203801002001490860D6
:100E900070470000140401402DE9FC4100268DF844
:100EA000046010274FF400758DF80570012400953B
:100EB0008DF80640684600F031F82846FFF7E6FF57
:100EC0008DF80460E5038DF8057000958DF80640F7
:100ED000684600F023F82846FFF7D8FFA504284607
:100EE000FFF7D4FF08208DF8050000958DF8064027
:100EF000684600F013F8BDE8FC810000064A014690
:100F000000201268044B0A4014331B680B4202D0C5
:100F1000002A00D0012070470004014030B51A4972
:100F20008379026853B30B6893430B600A1D1368FF
:100F30000468A343136002790A44136804682343D6
:100F40001360114A083213680468A3431360131D29
:100F50001C680568AC431C604479102C05D0214402
:100F60000A68006802430A6030BD116804682143C2
:100F70001160196800680143196030BD00790844A8
:100F800001689143016030BD0004014008B50121B2
:100F90000C2000F097FA4FF40040ADF80000032059
:100FA0008DF8020014208DF803006946064800F011
:100FB00023F80120ADF8000000208DF803006946F9
:100FC000024800F019F808BD00080140000C01407B
:100FD00010B58A0721F003040649130F21440F229C
:100FE0008C689A4094438C608A68984002438A6077
:100FF00010BD000000000140F0B5CA78002502F0E5
:101000000F03D20601D58A7813430A784FF00F0EEA
:1010100012F0FF0F4FF001021CD004680F8802FA93
:1010200005F63740B74211D14FEA850C0EFA0CF79E
:1010300024EA070703FA0CF43C43CF78282F02D0A8
:10104000482F02D002E0466100E006616D1C082DC9
:10105000E4D304600C88FF2C1ED944685FF00006BE
:1010600006F1080702FA07F50F882F40AF420FD1AB
:101070004FEA860C0EFA0CF7BC4303FA0CF73C431C
:10108000CF78282F00D14561CF78482F00D1056156
:10109000761C082EE4D34460F0BD0000F0B5144C7B
:1010A000002801DAE36900E06368420D120185B2AD
:1010B000C0F301579540C0F30346032F05D0C20289
:1010C0000AD50322B240934307E023F070626368BD
:1010D00023F07063636002E0AB4343F0706201B1E0
:1010E0002A43002801DAE261F0BD6260F0BD000031
:1010F000000001400246002092680A4200D0012010
:1011000070474161704701617047000005490968F7
:1011100089B201EBC000044901EB4000008980B2B4
:1011200070470000505C00400060004005490968BD
:1011300089B201EBC000044901EB40008089C0F393
:1011400009007047505C0040006000400449096895
:1011500089B201EBC000034931F8100080B270473A
:10116000505C0040006000400A4810B50168001D56
:101170000468001D006808180BD00822064900F01A
:101180003DF8054920460422BDE81040103100F02A
:1011900035B810BDE8F7FF1F22000020FEE7000071
:1011A00010B5134C2068017A022904D0042902D01A
:1011B000062905D015E0FFF739FC2068007A11E018
:1011C0004178052909D10178490606D1C07800F097
:1011D00023FB08480068006A804707480068806869
:1011E0008047082021680872BDE8104000F010B95F
:1011F0003C0100204401002040010020F0B5002304
:101200000A24302537261F4611E000BFB4EB107FBB
:1012100002D905EB107C01E006EB107C01F813C04D
:1012200001EB430C00015B1C8CF80170DBB29342B4
:10123000ECD3F0BD0448817A044809B1052100E0EF
:101240000121016000F072BEE009002028010020A9
:10125000FEE770477047000070B50F23C47801782F
:101260000122F4B1144C2468457804F4E064C4F518
:10127000E064240AC4F10406E3408478B5401C40CD
:101280002C4301F1E021230181F80034007800F0C3
:101290001F018A404009800000F1E020C0F80021D1
:1012A00070BD01F01F0082404809800000F1E0207D
:1012B000C0F8802170BD00000CED00E00249084339
:1012C00002490860704700000000FA050CED00E0DC
:1012D00070B52F4D2868017844784A0606D001F091
:1012E0007F00012828D002282BD035E0092C06D019
:1012F000052C07D0032C0ED0012C14D02CE000F0CC
:1013000015FD28E0C1787F292ED8817861BB8188BE
:1013100051BB807A27E0C17801291DD18088D8B9D6
:1013200000F020FD17E0C178012915D1818899B915
:10133000407A80060AD40FE00B2C0DD100F068FD36
:1013400009E0012C02D0032C03D005E000F0F0FBF3
:1013500001E000F019FD58B10E49204609684969BD
:101360008847032802D018B108200DE009200BE0BF
:10137000094A062000211268084B120403EBD232FE
:101380005160074A302111802968087270BD000041
:101390003C01002040010020505C00400060004003
:1013A0004C01002010B50F4C2068007A022811D0A3
:1013B00004280FD0032804D0052802D0072805D020
:1013C00008E0FFF78DFB2068007A04E0064800681B
:1013D000C0688047082021680872BDE8104000F00E
:1013E00017B800003C01002040010020064B521CB1
:1013F000520803EB410105D031F8043B20F8023BD1
:10140000521EF9D170470000006000407047000094
:101410000C4810B590F82C10002000F031FA0A4862
:101420000068007A082802D0092809D006E0074998
:101430004FF480500880064910200880002010BD1D
:10144000012010BDB00000203C0100204A01002016
:101450004C01002010B5012000F06CFE064801216F
:1014600001600021054A0160031D19604FF4E0513D
:1014700011800160002010BD405C00404801002048
:10148000034A516821F44041014351607047000014
:1014900000100240044A0029516901D0014300E0D4
:1014A000814351617047000000100240044A002946
:1014B000D16901D0014300E08143D1617047000050
:1014C00000100240044A0029916901D0014300E064
:1014D00081439161704700000010024030B51F4900
:1014E0004A6812F00C031E4A03D0042B01D0082BCB
:1014F00021D002604A680F231A4C03EA1212A35C3F
:101500000268DA4042604B68072505EA1323E35C72
:1015100022FA03F383604B6805EAD323E35CDA40E5
:10152000C2604968032303EA9131231F595CB2FB6F
:10153000F1F1016130BD4A684B6802F470124FF05E
:10154000020413F4803F04EB924202D04B689B03E9
:1015500001D5054B00E0024B5A43CAE70010024098
:1015600000127A005601002000093D000149C1F82F
:10157000D8007047000042422DE9F041214C072875
:1015800000D0207022781F4D0627052104261E4812
:10159000062A0BD2DFE802F0030C11161E2768683A
:1015A00010B12170BDE8F08100F030F82770F9E744
:1015B00000F02CF82670012022E002206070032049
:1015C0002070EFE76078401E607060780028E9D1F5
:1015D0002670E7E7026892B242F0100202602170C2
:1015E0000A206070DEE76178491E61706178002929
:1015F000D8D1016889B221F0100101602770002064
:101600006860CFE730010020405C004010B5064C18
:10161000206880B220F004002060FFF70BFE4FF43A
:101620003F40206010BD0000405C0040F8B50E4611
:10163000044627492648083150F8240051F8241060
:10164000084340F001000121FFF73CFF204D083D19
:10165000BCB301210820FFF721FD55F8240001212A
:10166000FFF724FF18208DF8030019486946183841
:1016700030F81400ADF8000003208DF80200154882
:1016800050F82400FFF7B8FC04208DF80300104840
:101690006946143830F81400ADF800000D480830E1
:1016A00050F82400FFF7A8FC0A4D3146083D55F8D4
:1016B000240000F0E5FC55F82400012100F05EFC58
:1016C000F8BDFFE701212868FFF7FCFECAE700002C
:1016D000E42500087001002038B504460C480121BB
:1016E00050F82400FFF7EEFE09486946203830F82C
:1016F0001400ADF8000010208DF8030003208DF8D1
:101700000200044850F82400FFF776FC38BD0000C2
:10171000F4250008800100200349044A31F8101024
:1017200052F8200041617047D42500088001002054
:101730000349044A31F8101052F820000161704743
:10174000D4250008800100200349044A31F8101014
:1017500052F82000FFF7CEBC0426000890010020BC
:101760007FB5044625480D46012150F8240040F07D
:101770000100FFF7A7FE2CB35FF048008DF80F00C3
:101780001E4803A9103830F81400ADF80C001C48AE
:1017900050F82400FFF730FC012D2ED117484030BF
:1017A00010F81410103810F81400FFF711FC13484B
:1017B000203030F81400009000208DF804001CB197
:1017C0000C2002E02820D9E708208DF8050001252B
:1017D0008DF806506846FFF7A1FB0848503010F816
:1017E00014008DF808000F208DF809008DF80A000C
:1017F0008DF80B5002A8FFF72FFD7FBD14260008BF
:101800009001002070470000024920F007000860A6
:1018100070470000505C0040F0B50E490E4D48F690
:101820008F770B78002148F2800C0BE0CEB205EBED
:101830008604D4F8002C3A40324342EA0C02C4F841
:10184000002C491C9942F1D3044940F08000086003
:10185000F0BD000000010020005000404C5C004042
:10186000054A21F00101126892B202EBC000034A5E
:1018700002EB400081607047505C00400060004017
:101880000D4A12683E2992B202EBC0000B4A02EBED
:10189000400209D94809C90601D1401E80B24FF45F
:1018A000004141EA802004E04808C90700D0401CFC
:1018B0008002106070470000505C00400C600040E7
:1018C00082000A480244D2F8000C4BF68F7318408D
:1018D000CB0401D580F48050890401D580F40050F8
:1018E00048F280010843C2F8000C704700500040E5
:1018F000810007480144D1F8000C4BF68F7210406C
:1019000080F4405048F280021043C1F8000C704748
:1019100000500040054A21F00101126892B202EB2A
:10192000C000034A42F8101070470000505C0040AD
:1019300000600040044A126892B202EBC000034A01
:1019400002EB400041607047505C00400060004086
:1019500082000A480244D2F8000C48F6BF731840CF
:10196000CB0601D580F01000890601D580F020005B
:1019700048F280010843C2F8000C70470050004054
:10198000810007480144D1F8000C48F6BF721040AE
:1019900080F0300048F280021043C1F8000C70471C
:1019A00000500040820005480244D2F8000C48F67E
:1019B0008F1318400843C2F8000C704700500040D5
:1019C0000CB50021264801910091026842F4803252
:1019D00002604FF4A063026802F400320092019AA0
:1019E000521C0192009A12B9019A9A42F3D10268EC
:1019F000920333D5012100911A490A6842F010027E
:101A00000A600A6822F003020A600A6842F00202D1
:101A10000A604168416041684160416841F4806109
:101A20004160416821F47C114160416841F4E81152
:101A30004160016841F08071016001688901FCD555
:101A4000416821F003014160416841F002014160B9
:101A50004168C1F381010229FAD10CBD00910CBD8E
:101A6000001002400020024010B501210420FFF7C1
:101A700029FD4FF44040FFF703FDFFF787FA0121EE
:101A80000220FFF76DFE01210846FFF769FEFFF710
:101A900003FA0020FFF720FE0120FFF71DFE0220C1
:101AA000FFF71AFE0320FFF717FEBDE81040FEF710
:101AB00081BB10B50020FFF759FD0121BDE81040A2
:101AC000C805FFF7F3BC000070B516480068174D55
:101AD0000004C10B14480144098989B200EB410498
:101AE0002868017A09290FD0217801706178417046
:101AF000A088FEF750FC296848802089FEF74BFC3F
:101B000029688880A089C880286801210172C0885E
:101B100028B1FFF737F8BDE87040FFF779BCFFF751
:101B2000D7FBF8E7505C0040006000403C0100201B
:101B30002DE9F04138480068017811F07F0102D0AA
:101B4000022905D066E0417A01F0DF0141724EE0E2
:101B5000418800295ED10179F1BB4179304D21F0F6
:101B600080040A0605EB84022C4BD2F8002C03D526
:101B7000C2F30112120102E0C2F3013212031E7815
:101B80002346A64246D93AB3807A28B308064FEADC
:101B900084000ED52844D0F8000CC0F301100128B1
:101BA00021D11846FEF7BEFC20463021FFF7D0FEBB
:101BB00019E04619D6F8000CC0F30130012812D103
:101BC0004BF68F7748F28008A4B11846FEF796FCD2
:101BD000D6F8000C384000E01CE080F4405040EAA9
:101BE0000800C6F8000C0F480068406980470020D4
:101BF000BDE8F0810C4890F82C100020FFF740FE63
:101C0000D5F8000C384080F4405040EA0800C5F890
:101C1000000CE8E70220EBE73C0100200001002077
:101C20000050004044010020B000002010B5074CD7
:101C300030B1074800680068804720680A3010BD4E
:101C4000216801200882002010BD00003C01002016
:101C500044010020054A13685A8A10B108681044EC
:101C600070478888801A1882002070473C01002045
:101C700010B5074C30B1074800688068804720687D
:101C80000C3010BD216801200882002010BD00002A
:101C90003C01002044010020204910B5096860B1D2
:101CA0001F48002202800A7853060AD002F07F0201
:101CB000012A16D0022A16D001E002200882002054
:101CC00010BD497A8A06027802D542F0020201E08C
:101CD00002F0FD0249060270D1B211D401F0FE01FA
:101CE00010E00F4810BD4A79110713060D4A02EBA8
:101CF0009161D1F8001C07D5C1F3011106E001780C
:101D000041F00101017003E0C1F301310129F6D076
:101D10000548006800698047E3E700003C010020B7
:101D20005001002000500040440100200A4810B536
:101D300000680A4AC1785278914203D882780AB979
:101D400082880AB1022010BD81720548006840688F
:101D50008047002010BD00003C0100200001002051
:101D600044010020064810B50068417A41F0200186
:101D7000417204480068C0698047002010BD00001F
:101D80003C0100204401002070B51D481D4D036832
:101D9000597921F0800005EB80000C06D0F8004C4A
:101DA00021F0800203D5C4F30114240102E0C4F33E
:101DB00001342403144D2D78954210D95A8872B9F4
:101DC0006CB19A7A5AB10906D0F8001C48F2800228
:101DD00007D548F6BF73194081F0100106E00220D4
:101DE00070BD4BF68F73194081F480511143C0F8D8
:101DF000001C0648006880698047002070BD000014
:101E00003C0100200050004000010020440100205F
:101E100010B50E4C0E4A20681268C178926940795C
:101E2000904721688A7A22B118B9087908B9887868
:101E300008B1022010BD07480068C06880472068CC
:101E40004179C172C1780173002010BD3C010020AE
:101E50004001002044010020F8B52B4900200090EB
:101E60000A682A4B2A4C92B203EB8005D5F8005C35
:101E7000ADB244F82050401C0828F5D342F48060ED
:101E8000086040F00100086020F001050D601E4A66
:101E9000121D10684005FCD54FF6FF301060002081
:101EA00054F8206003EB8007B6B2C7F8006C401C02
:101EB0000828F5D345F008000860086880B240F0B3
:101EC00004000860134B18680090186820F00300A5
:101ED00040F0010018601048046844F004040460F5
:101EE0001468E40401D430BF09E04EF6FF741460B6
:101EF0000A6892B222F008020A600099196001682B
:101F000021F004010160F8BD405C00400050004039
:101F1000C00900200070004010ED00E00248016898
:101F2000491E0160704700001C0000200F4810B5DA
:101F3000016841F00101016041680D4A11404160B2
:101F400001680C4A11400160016821F480210160A0
:101F5000416821F4FE0141604FF41F018160FFF7E9
:101F60002FFD05494FF00060086010BD00100240D1
:101F70000000FFF8FFFFF6FE08ED00E00029818970
:101F800002D041F4005101E021F4005181817047F9
:101F90001E4A10B513791E48002123B1012B04D02D
:101FA000022B1CD104E0C18005E04FF4405301E056
:101FB0004FF40053C380537923B1012B04D0022B7B
:101FC0000DD104E0018105E04FF4806301E04FF49E
:101FD000C06303819379072B0BD0082B03D000F04B
:101FE00019F8002010BD03891BB14FF48053838082
:101FF00000E081801268026081810C2141810449E6
:102000000020FFF713FB012010BD00008800002016
:10201000B00100200C4810B54FF4165101600021AA
:102020008180C1804FF4C062028181810C21418195
:1020300001460020FFF7FAFABDE81040012240F205
:102040002551024800F004B8B001002000380140DA
:1020500010B5C1F3421301F01F040121A140012B6F
:1020600007D0022B07D01430002A026805D00A439B
:1020700004E00C30F8E71030F6E78A43026010BD48
:1020800030B50446008A85B00D464CF6FF71084015
:10209000E98801432182A1894EF6F3100140A88806
:1020A0002A8910436A890A431043A081A08A4FF607
:1020B000FF410840A9890143A1826846FFF70EFA53
:1020C0001948844201D1039800E00298A1890904CB
:1020D00000EBC00101EB0010296801D5490000E0C8
:1020E0008900B0FBF1F06422B0FBF2F109010B09A9
:1020F0006FF018056B4300EB8300A3891D044FF0BC
:10210000320306D503EBC000B0FBF2F000F007008D
:1021100005E003EB0010B0FBF2F000F00F00084305
:10212000208105B030BD0000003801404FF4802010
:10213000FEF7ACBE044A00284FF40041104601D01F
:10214000FEF7DFBFFEF7DFBF000801400648054984
:10215000022201600A72064A0449C0E901120868B5
:1021600000470000E00900203C010020B0000020F2
:102170000401002038B54FF4A060FFF79FF8142049
:102180008DF8000001258DF8015000248DF80240E3
:102190008DF803506846FFF75FF82A208DF800009D
:1021A0008DF801408DF803506846FFF755F8172069
:1021B0008DF800008DF801406846FFF74DF82820A3
:1021C0008DF800008DF801406846FFF745F80B20B8
:1021D0008DF8000002208DF801006846FFF73CF8FA
:1021E00038BD00002DE9F0414A4E88B00024306827
:1021F000494D68806888494F39880840000401D5F6
:10220000FEF7CEF8688839884FF6FF380840400559
:1022100004D5C6F8008042484068804769883888FD
:102220000140890402D54DF6FF7131606988014093
:10223000C80405D54EF6FF7030600020FFF79CF90A
:1022400068883988084000050BD53648007810B1F9
:10225000FFF702FE02E00220FFF78EF94FF2FF7057
:102260003060698838880140890505D54FF6FF51EF
:1022700031602978491C297069880140C80545D515
:102280004FF6FF6030602348001D00684FF00001EA
:10229000000437D56868401C68606868032832D934
:1022A0001C48001F026812072DD4026892B2AA606F
:1022B0001D4A6B4602EB8407D7F8007CBFB243F897
:1022C0002470641C082CF5D3AC6844F00104AC60A5
:1022D000AC68A4B20460AC6824F00104AC60AC68E3
:1022E000A4B2046030684005FCD5C6F80080002028
:1022F00053F8204002EB8006A4B2C6F8004C401C04
:102300000828F5D369600720FFF736F908B0BDE863
:10231000F0810000445C00403C00002048010020A7
:10232000B00000202C01002000500040FFF75ABFF1
:1023300005490020086005494FF43F4008800249E4
:10234000091F086000207047445C004048010020DD
:1023500070B500F07F060D463046FEF7E7FE0446F6
:102360003046FEF7D3FE014622462846FFF73EF8E8
:10237000204670BD70B500F07F0514460E46284615
:10238000FEF7E4FE0146A2B2304600F007F8A1B223
:102390002846FFF7CFFA002070BDFEE7094B10B5C5
:1023A000521C520803EB41010AD000BF10F8013B58
:1023B000521E10F8014B43EA042321F8043BF5D1E7
:1023C00010BD00000060004008B104487047044997
:1023D000082009680882002070470000880000205B
:1023E0003C01002008B104487047044908200968EE
:1023F0000882002070470000880000203C01002077
:1024000002E008C8121F08C1002AFAD170477047BD
:10241000002001E001C1121F002AFBD1704700001B
:102420000624FFF721FB0C4D0BE00020FFF780F99D
:102430002846FEF777FC0020FFF76EF92846FEF7E6
:1024400071FC641EE4B2F0D2FFF794FEFFF731FB9B
:10245000FFF77CFEFEE7000020A10700120100024A
:10246000EF020140830470570002010203010902D8
:102470007300030100C032080B00020202010009D0
:1024800004000001020201000524001001052401DE
:102490000001042402020524060001070582030846
:1024A00000FF09040100020A0000000705030240C2
:1024B000000007058402400000080B020103000031
:1024C00005090402000203000000092110010001B7
:1024D000229E000705810302002007050103020078
:1024E000200600FF0901A10185800955150026FF7E
:1024F0000075089501B18285010901150025017556
:10250000089501B1828501090191828502090215B0
:1025100000250175089501B1828502090291828525
:102520000309031500250175089501B1828503098A
:10253000039182850409041500250175089501B1F0
:102540008285040904918285050905150025017518
:1025500008818285050905B18285060906150025D1
:10256000017508818285060906B18285070907156C
:102570000026FF007508818285070907B182C00423
:102580000309042603530054004D006900630072E0
:10259000006F0065006C0065006300740072006FDE
:1025A000006E006900630073002003530054004D67
:1025B0000033003200200043007500730074006D8A
:1025C00000200048004900440000000000022000F4
:1025D00000044000000280000001000200400000F2
:1025E00000000200040000002000000004000000C1
:1025F0002000000004000000100000001000000097
:102600001000000001000080000201000200000133
:102610000040001004000000080000000800000056
:1026200040000000400000002000000020000000EA
:1026300020000000010000800002010002000001F3
:10264000004000100000010001000400040003002D
:102650000300030000000F00090000000100080053
:102660000E000C00060028001700060007001700E7
:10267000280028009426000800000020B001000077
:102680004801000848270008B0010020500C000055
:102690001024000801187201141A03531254124D29
:1026A0001233021D3213410D0C14085512040A197D
:1026B0004D1C912AC2721208135C243308121A6E40
:1026C0000832731AE108329E1A800832091345084D
:1026D0001408B1061408C9071B08410C136D051B2B
:1026E0000891101A85041A25041A19041A65044160
:1026F0003240137F253308041A830832261AA908AA
:102700003220190433201A1A027729881A615009D5
:1027100016A41A891C4129A201224C0204062E2C5F
:10272000020304043B0607B9143801401A44931A03
:1027300008081A1404A9089A100429105A0C045AFB
:082740001804292859040000C7
:04000005080000ED02
:00000001FF
