:020000040800F2
:10000000280C002045010008DB130008D51100086A
:10001000D913000805020008FD21000800000000B7
:100020000000000000000000000000005D18000853
:10003000890A000800000000DD150008ED1E000818
:100040005F0100085F0100085F0100085F01000810
:100050005F0100085F0100085F0100085F01000800
:100060005F0100085F0100085F0100085F010008F0
:100070005F0100085F0100085F0100085F010008E0
:100080005F0100085F0100085F0100085F010008D0
:10009000D92100085F0100085F0100085F01000826
:1000A0005F0100085F0100085F0100085F010008B0
:1000B0005F0100085F0100085F0100085F010008A0
:1000C0005F0100085F0100085F0100085F01000890
:1000D0005F0100085F0100085F0100085F01000880
:1000E0008D0A00085F010008092000085F01000870
:1000F0005F0100085F0100085F0100085F01000860
:100100005F0100085F0100085F0100085F0100084F
:100110005F0100085F0100085F0100085F0100083F
:100120005F0100085F0100085F0100085F0100082F
:10013000DFF80CD000F018F8004800474D22000806
:10014000280C00200648804706480047FEE7FEE7E7
:10015000FEE7FEE7FEE7FEE7FEE7FEE7FEE7FEE777
:10016000F11E000831010008064C074D06E0E0686A
:1001700040F0010394E8070098471034AC42F6D3EE
:10018000FFF7DAFF042500082425000870B58C1855
:1001900010F8015B15F0070301D110F8013B2A119B
:1001A00006D110F8012B03E010F8016B01F8016B88
:1001B0005B1EF9D12B0705D40023521E0DD401F884
:1001C000013BFAE710F8013BCB1A921C03E013F84D
:1001D000015B01F8015B521EF9D5A142D8D3002082
:1001E00070BD000008B5024908440090008808BDB1
:1001F000006C004008B5024A10440090016008BD40
:10020000006C0040FEE7C1B2000A40EA01207047DE
:100210002DE9F84F0020ADF80000DFF834A14BF6CF
:10022000BF7648F280074A4D4A4C40F68F7848F630
:100230000F7BDFF824910AF1440A31E00888474A2D
:1002400010F00F00107034D0454901EB8001D1F857
:10025000002CADF80020BDF8002012040BD5D1F819
:10026000002C02EA0802C1F8002C3E4901EB800094
:1002700050F8040C8047BDF80000000610D5374840
:100280003749007801EB8001D1F8002C02EA0B021B
:10029000C1F8002C344901EB800050F8040C804771
:1002A000DAF800004946A9F800000004C6D4BDE809
:1002B000F88F28682080208800F030006080208837
:1002C00000F4405020802868304080F4005080F0D6
:1002D0002000384328600888C006286815D400EA42
:1002E0000B00286000F078FF26E02188890401D502
:1002F00080F400506188C90626D46188890601D53A
:1003000080F0200038432860D1E7ADF80000BDF848
:100310000000000506D5286800EA0800286001F002
:10032000BBFB09E0BDF800000004B9D5286800EA6D
:100330000800286001F01EF9286821883040C904AF
:10034000D3D580F48050D0E780F01000D5E70000CE
:10035000005C0040E2030020CA020020D00300201D
:1003600000500040F0020020D40200208100084824
:100370000844D0F8001C490409D5D0F8001C48F600
:100380008F7211404CF280021143C0F8001C70477C
:1003900000500040810008480844D0F8001C49067D
:1003A00009D5D0F8001C48F68F72114048F2C002FF
:1003B0001143C0F8001C70470050004081000648FF
:1003C0000144D1F8000C48F68F62104048F28002D8
:1003D0001043C1F8000C704700500040164910B59A
:1003E0000A68117801F07F01212922D1134B0228DC
:1003F000197806D001280AD0052810D0032810D07B
:1004000017E0022901D0092913D10D490AE0022978
:1004100001D005290DD1032018700A4902E00A49CC
:1004200000E00A4929B100209161508288470020EC
:1004300010BD022010BD0000D40300201C000020CD
:10044000411F000841070008990F0008B50F000878
:10045000014901F0E7BB000024030020014901F03D
:10046000E1BB00001C03002005490968C978082980
:1004700001D900207047034A02EBC10101F0D2BB51
:10048000D40300205C030020032901D8022801D9ED
:10049000022070470020704770B529490968097823
:1004A00001F07F01212912D1284B0022254E264937
:1004B0001D78012807D00224022813D0042817D061
:1004C000062828D003E0052D03D0022D01D00220FC
:1004D00070BD0120B060062018704A708A70CA7022
:1004E00008712BE01C704A708A70CA700C7125E08C
:1004F0000A2D09D00A2018700E230B704A708A70DA
:10050000CA7008714A7119E01C700A704A708A70CA
:10051000CA700C71F6E7022D07D0032D05D0052D0A
:1005200003D0062D01D0092D08D11C700A704A7025
:100530008A70CA700C714A7132607260002070BD9E
:10054000D40300200C030020280000201C00002001
:1005500070B520490020214A88721F491268204C3A
:10056000C979517220601E485038016848F68F12D0
:10057000114041F400710160016848F6BF721140FA
:1005800081F0200148F280021143016021681020AF
:10059000144D090405EBD131134E8860002016F884
:1005A0002C1F01F081F921685020090405EBD1319D
:1005B00008603178002001F0A9F90020FFF7FEFE65
:1005C000002001F091F9002001F04AF907490120CB
:1005D000086070BD0808002040000020D4030020FF
:1005E000505C0040006000402C030020BC03002051
:1005F0000348807A002802D002490520086070472D
:1006000008080020BC03002001490420086070474E
:10061000BC0300207047000070B5214840780328D3
:1006200021D1204D2878042805D007281BD1BDE80A
:10063000704000F053B81C4C21462068496898B1BE
:10064000012806D98002E268A0F50060104400F09D
:10065000A7FE002060601549032220602A700A71FD
:1006600048708870C87070BD11480278002AF0D0B8
:1006700046788378212A06EB0323C678007903EBBA
:10068000064303EB006007D0412AE2D10529E0D1FF
:10069000E06000F0F9FDDCE70529DAD1E060D8E799
:1006A000080800201C0000200C0300202800002067
:1006B000E803002070B5074D00F072FD0024AC7215
:1006C00000F0B0FF01F08AFD01F0C2FC02480460B6
:1006D00070BD000008080020BC030020144910B5BC
:1006E000002088601831134A0968097D4B071249B8
:1006F00006D5062313700B7148708870C87010BD42
:10070000082313700B7148700C4C8870C8702068F7
:1007100040F48070206000210420FFF76BFD20680A
:1007200020F480702060BDE8104000F0BBBF0000E6
:100730000C0300201C000020280000200070004056
:100740000E4910B5CC788A780D4B04EB02221A6062
:10075000CA798C7904EB02225A600A4C498A032335
:100760002370094C521A92B2237110B10748084401
:1007700010BD074800680282002010BD0808002054
:100780000C0300201C00002028000020E8030020AB
:10079000D40300202DE9F047DFF89480254F4FF077
:1007A0003009D8F8001001F11005088A0E7A08B94E
:1007B000042E04D0AC88A04215D8042614E01E48AC
:1007C0000178012903D00726102038802BE01B4A2E
:1007D000002112681A4B120403EBD2325160A7F8C1
:1007E000009001701FE00226844200D90446A968E7
:1007F000204688478246002000F0C4FC014622467D
:10080000504601F0FDFC2146002001F07FF82888C9
:10081000001B2880688820446880A7F80090094958
:100820004FF440500880D8F800000672BDE8F08709
:10083000D4030020E4030020CC030020505C0040DF
:1008400000600040E20300202DE9F047224EDFF86F
:100850008C803027356835F8100FA968A9B100B32E
:10086000AC88844200D904462046884781462888BF
:10087000001B2880688820446880002000F072FCFB
:1008800001462246484600F099FE288848B114499E
:100890004FF4405008800021084601F037F8A8F8CE
:1008A00000702888A988884201D3032001E020B184
:1008B000052031680872BDE8F087316806200872AB
:1008C000084900200968084A090402EBD131486050
:1008D000A8F80070EFE70000D4030020E403002034
:1008E000E2030020505C004000600040F8B55D4C21
:1008F0005D4D09262068002729684278062A05D020
:10090000AAB1082A4DD00A2A50D06BE002785206CC
:1009100068D18078012804D0022804D0032804D0AC
:1009200060E0C96956E0096A54E0496A52E04288C9
:10093000B2BBC288022A55D102798ABB027853061B
:1009400001D1838833B102F07F02012A04D0022A48
:100950000CD047E045493DE08A6940790021904745
:10096000F0B92068807A0028F4D13BE0417901F0A9
:100970000F0001F070020B063D4901EB8001D1F838
:10098000001C03D5C1F30111090102E0C1F30131DB
:100990000903384B1B78834224D90AB90029D9D1DD
:1009A00020E0007840061DD1334913E0027802F0C0
:1009B0007F02012A16D1827AA2B1428892B90279C5
:1009C00082B9C288012A0DD18A69407900219047F5
:1009D00040B92A4931B120684782816100208847A7
:1009E000002006E0296820680969407888470328C4
:1009F00013D021680A8AA2F57F43FF3B0BD002285F
:100A00000ED06AB10878000626D5C88800908242C8
:100A10000AD9088218E00E72F8BD20680672F8BD87
:100A20004FF008000872F8BD0ED22868144B90F8F9
:100A30002C00824201D21F7006E0B2FBF0F400FBF2
:100A4000142008B901201870286890F82C008882BA
:100A5000BDE8F840FFF79EBE032008720949000375
:100A60000880F8BDD4030020D8030020691C0008CA
:100A70000050004094030020FD1B0008411C0008AA
:100A8000CC030020E20300207047000010B54FF4B3
:100A90008074204600F018F800280CD00648006842
:100AA000407A800602D5012000F010FE2046BDE805
:100AB000104000F003B810BDD403002001490860C5
:100AC0007047000014040140064A014600201268E5
:100AD000044B0A4014331B680B4202D0002A00D09A
:100AE000012070470004014030B51A49837902683B
:100AF00053B30B6893430B600A1D13680468A34348
:100B0000136002790A441368046823431360114A8E
:100B1000083213680468A3431360131D1C6805683A
:100B2000AC431C604479102C05D021440A6800684D
:100B300002430A6030BD11680468214311601968DE
:100B400000680143196030BD007908440168914391
:100B5000016030BD0004014070B505464FF43026F9
:100B6000304600F089F8042811D1094C206940F082
:100B7000020020616561206940F04000206130463C
:100B800000F07AF8216941F6FD721140216170BDD3
:100B90000020024008490420CA68D20701D0012081
:100BA0007047CA68520701D502207047C968C90654
:100BB000FBD50320704700000020024010B5FFF76E
:100BC000CBFF002010BD0020704770472DE9F04199
:100BD00006460E4D0F4688070BD00C464FF6FC72AA
:100BE000FF2007EA0201091D01E02855641CA1420B
:100BF000FBD8002405E02959304600F009F8241DEF
:100C0000361DBC42F7D30020BDE8F081E803002088
:100C10002DE9F841064600204FF4005700900D469C
:100C2000384600F029F8042816D10C4C206940F011
:100C3000010020613580B846384600F01DF8BF1E1F
:100C4000042806D1B61C280C00963080404600F0DF
:100C500013F8216939402161BDE8F8810020024084
:100C600003480249416003494160704723016745D9
:100C700000200240AB89EFCD00B50346FFF78AFFA5
:100C800003E000BFFFF786FF5B1E012803D0002BA7
:100C900000D1052000BD002BF4D1FAE78000A0F1BF
:100CA000C0400029016802D041F0010101E0024A80
:100CB0001140016070470000FEFF0F0010B5D0E941
:100CC00001121143D0E903231A431143426911432E
:100CD00082691143C2691143026A1143426A114396
:100CE000826A1143C26A1143026B11430268920087
:100CF000A2F1C04211608168082907D1016889000A
:100D0000A1F1C0410A6842F040020A60416BD1E99A
:100D1000002342EA03128B688C891B0243EA0443D6
:100D20001A430B8A42EA03520B7D896942EA036245
:100D30000A4301688900A1F1C0414A60C16AB1F566
:100D4000804F08D000686FF070418000A0F1C04073
:100D5000C0F8041110BD816BD1E9002342EA0312EF
:100D60008B680C8A1B0243EA04531A430B7D896982
:100D700042EA036200680A438000A0F1C040C0F864
:100D8000042110BD094930B4AA220A80084C552319
:100D9000238080250D800A80238000F1C840302107
:100DA000018030BC4FF4200000F004B8AA0A0064AF
:100DB0005405006470B504460546184E00E06D1EEB
:100DC0004021304600F0C2F908B1002DF7D1254688
:100DD00000E06D1E4021304600F0B8F908B9002D42
:100DE000F7D14FF0C841B4B108880A8800F040003C
:100DF00002F04002641E904207D008880A8800F082
:100E0000400302F04002934201D1002070BD8006F1
:100E1000E9D5022070BD032070BD00000014014020
:100E200070B598B001214FF4F07000F029FC4CF23D
:100E30000370ADF8580018208DF85B000320314C8A
:100E40008DF85A0016A9204600F002F94FF680707E
:100E50002D4DADF8580016A9284600F0F9F84FF2CC
:100E60003F00ADF8580016A9284800F0F1F83F20DF
:100E7000274EADF8580016A9304600F0E9F84FF4B7
:100E80006050ADF8580016A9204600F0E1F878202F
:100E9000ADF8580016A9284600F0DAF83020ADF871
:100EA000580016A9204600F0D3F86015ADF8580098
:100EB00016A9304600F0CCF802210020CDE90F1031
:100EC0000522CDE91120CA06CDE91402CDE90010B2
:100ED0000821029113901021CDE903100690090218
:100EE0000790CDE908010A900B900C900FA80D9087
:100EF0000E906846FFF7E2FE01210220FFF7CEFECA
:100F000018B070BD0014014000180140001C0140E1
:100F1000002001400949AA220A80094B55221A8063
:100F200090220A804FF0C8410A8802804A88428095
:100F30008A8B8280C98BC18070470000AA0A006436
:100F4000540500644FF0C841F0200880002070472D
:100F500070B515460E460446304634F8021B00F0C4
:100F600007F86D1EB61C002801D1002DF4D170BD0C
:100F7000074A30B4AA231380064C55232380A023AC
:100F8000138000F1C840018030BC5801FFF712BF48
:100F9000AA0A00645405006408B104487047044973
:100FA0000120096808820020704700001C00002012
:100FB000D403002070B5044620480022204905785B
:100FC000204B032D02D0062D2FD117E05D689DB177
:100FD000042202701B480A711968C06819B91A49BD
:100FE0000978412905D0164A5FF0010100F068F93F
:100FF0001BE0134A0021F9E7052311E09B68012B50
:1010000001D033B111E0072303700B710120487048
:1010100009E00C4B18331B681B7D5B0705D50223C9
:1010200003700B714A708A70CA700CB1044870BDAD
:101030000649062009680882002070BD1C000020B7
:10104000280000200C030020E8030020D403002027
:10105000F0B5CA78002502F00F03D20601D58A78D0
:1010600013430A784FF00F0E12F0FF0F4FF00102FA
:101070001CD004680F8802FA05F63740B74211D138
:101080004FEA850C0EFA0CF724EA070703FA0CF472
:101090003C43CF78282F02D0482F02D002E046618F
:1010A00000E006616D1C082DE4D304600C88FF2C61
:1010B0001ED944685FF0000606F1080702FA07F53A
:1010C0000F882F40AF420FD14FEA860C0EFA0CF773
:1010D000BC4303FA0CF73C43CF78282F00D145617D
:1010E000CF78482F00D10561761C082EE4D34460E8
:1010F000F0BD0000F0B5144C002801DAE36900E00F
:101100006368420D120185B2C0F301579540C0F3E8
:101110000346032F05D0C2020AD50322B2409343EF
:1011200007E023F07062636823F07063636002E09D
:10113000AB4343F0706201B12A43002801DAE26157
:10114000F0BD6260F0BD00000000014002460020DA
:1011500092680A4200D001207047416170470161E6
:10116000704700000549096889B201EBC0000449D5
:1011700001EB4000008980B270470000505C0040E5
:10118000006000400449096889B201EBC0000349CE
:1011900031F8100080B27047505C004000600040A1
:1011A0000A4810B50168001D0468001D0068081891
:1011B0000BD00822064900F03DF8054920460422DC
:1011C000BDE81040103100F035B810BDE8F7FF1F42
:1011D000AD000020FEE7000010B5134C2068017A36
:1011E000022904D0042902D0062905D015E0FFF712
:1011F000D1FA2068007A11E04178052909D10178F7
:10120000490606D1C07800F02BFB08480068006A48
:101210008047074800688068804708202168087276
:10122000BDE8104000F0DCB9D4030020DC0300204E
:10123000D8030020F0B500230A24302537261F46A6
:1012400011E000BFB4EB107F02D905EB107C01E088
:1012500006EB107C01F813C001EB430C00015B1C92
:101260008CF80170DBB29342ECD3F0BD0448817A74
:10127000044809B1052100E00121016000F038BEF9
:1012800008080020BC030020094910F07C4209D066
:10129000B2F1006F04D0B2F1C84F06D00120704700
:1012A000044A00E0044A0A601047044AFBE70000D1
:1012B00000000020BD0B0008AB170008DF1300087A
:1012C00030B5C0F3816001F00103012810D10F494E
:1012D00042F221258C880988AC4201D1202904D012
:1012E000AC4205D1012902D002E0032000E0042035
:1012F000074901EB800010F81310517030F813000B
:10130000000A90700020D07030BD00000C0000205A
:10131000F024000810B5FFF756FC00F04BFA00F07F
:1013200065F80D48FFF7F6FDFFF70CFE0A480B4B7A
:1013300042F221220188012902D0202905D009E0AA
:101340008088904206D1064803E08088904201D10F
:1013500004481863002010BD0C0000205C0300202E
:101360005D020020F3010020094A10F07C4309D0FF
:10137000B3F1006F04D0B3F1C84F06D0002070471E
:10138000044B00E0044B93601847044BFBE700005C
:1013900000000020CB0B0008C1170008FF13000855
:1013A000094A10F07C4309D0B3F1006F04D0B3F1C7
:1013B000C84F06D001207047044B00E0044B536037
:1013C0001847044BFBE7000000000020CD0B00088D
:1013D000D517000801140008FEE77047704710B5E4
:1013E00020F07F40FFF7CEFC002010BD10B5FFF7C6
:1013F00017FD01210220FFF751FC002010BD7047AE
:1014000010B5CA0705D0FF22064B491C0B4403F850
:10141000012C4A0820F07F410248FFF799FD002087
:1014200010BD0000E803002070B50F23C4780178D8
:101430000122F4B1144C2468457804F4E064C4F546
:10144000E064240AC4F10406E3408478B5401C40FB
:101450002C4301F1E021230181F80034007800F0F1
:101460001F018A404009800000F1E020C0F80021FF
:1014700070BD01F01F0082404809800000F1E020AB
:10148000C0F8802170BD00000CED00E00249084367
:1014900002490860704700000000FA050CED00E00A
:1014A00070B52F4D2868017844784A0606D001F0BF
:1014B0007F00012828D002282BD035E0092C06D047
:1014C000052C07D0032C0ED0012C14D02CE000F0FA
:1014D00015FC28E0C1787F292ED8817861BB8188EE
:1014E00051BB807A27E0C17801291DD18088D8B905
:1014F00000F020FC17E0C178012915D1818899B945
:10150000407A80060AD40FE00B2C0DD100F068FC65
:1015100009E0012C02D0032C03D005E000F0F0FA22
:1015200001E000F019FC58B10E49204609684969EC
:101530008847032802D018B108200DE009200BE0ED
:10154000094A062000211268084B120403EBD2322C
:101550005160074A302111802968087270BD00006F
:10156000D4030020D8030020505C004000600040FD
:10157000E403002010B50F4C2068007A022811D037
:1015800004280FD0032804D0052802D0072805D04E
:1015900008E0FFF759F92068007A04E0064800687F
:1015A000C0688047082021680872BDE8104000F03C
:1015B00017B80000D4030020D8030020064B521CAB
:1015C000520803EB410105D031F8043B20F8023BFF
:1015D000521EF9D1704700000060004070470000C3
:1015E0000C4810B590F82C10002000F05DF90A4866
:1015F0000068007A082802D0092809D006E00749C7
:101600004FF480500880064910200880002010BD4B
:10161000012010BD2C030020D4030020E203002091
:10162000E403002010B5012000F0F2FC064801217F
:1016300001600021054A0160031D19604FF4E0516B
:1016400011800160002010BD405C0040E0030020DC
:10165000044A0029516901D0014300E081435161EE
:101660007047000000100240044A0029D16901D0EF
:10167000014300E08143D161704700000010024047
:10168000044A0029916901D0014300E0814391613E
:1016900070470000001002400149C1F8D8007047AF
:1016A00000004242002000F0B3FCBFF34F8F05481A
:1016B0000168054A01F4E06111430160BFF34F8FF7
:1016C000FEE700000CED00E00400FA052DE9F04112
:1016D000214C072800D0207022781F4D06270521B5
:1016E00004261E48062A0BD2DFE802F0030C11166E
:1016F0001E27686810B12170BDE8F08100F030F855
:101700002770F9E700F02CF82670012022E0022073
:10171000607003202070EFE76078401E6070607892
:101720000028E9D12670E7E7026892B242F0100281
:10173000026021700A206070DEE76178491E6170E6
:1017400061780029D8D1016889B221F010010160C7
:10175000277000206860CFE7C4030020405C004091
:1017600010B5064C206880B220F004002060FFF71E
:101770007DFD4FF43F40206010BD0000405C004004
:101780000029018802D041F0400101E021F0400130
:10179000018070470246002012890A4200D00120D1
:1017A0007047808970478181704710B500F07EFDD9
:1017B000002010BD10B500F09BFD002010BD000002
:1017C0008AB210B50146024800F0FAFD004810BD8B
:1017D000E80300202DE9F041114E0546C1F307242E
:1017E00011F0FF0F0AD001F47F40FF2200F5807056
:1017F00001E07254491C8842FBD8641C00274FF456
:10180000807808E006EB07204246294600F044FEB7
:1018100005F580757F1CA742F4D30020BDE8F08158
:10182000E803002030B502884C8802F441530A884E
:10183000CD8822438C882C4322430C8922434C8937
:1018400022438C892243CC8922431A430280828B13
:1018500022F400628283098A018230BD7047000051
:10186000F0B50E490E4D48F68F770B78002148F2FF
:10187000800C0BE0CEB205EB8604D4F8002C3A4085
:10188000324342EA0C02C4F8002C491C9942F1D3BD
:10189000044940F080000860F0BD0000940300207F
:1018A000005000404C5C00400D4A12683E2992B244
:1018B00002EBC0000B4A02EB400209D94809C906F5
:1018C00001D1401E80B24FF4004141EA802004E083
:1018D0004808C90700D0401C800210607047000013
:1018E000505C00400C600040810007480144D1F882
:1018F000000C4BF68F72104080F4405048F280028A
:101900001043C1F8000C704700500040044A1268B0
:1019100092B202EBC000034A02EB40004160704704
:10192000505C00400060004082000A480244D2F847
:10193000000C48F6BF731840CB0601D580F01000AC
:10194000890601D580F0200048F280010843C2F8E2
:10195000000C7047005000400CB500212648019152
:101960000091026842F4803202604FF4A063026882
:1019700002F400320092019A521C0192009A12B9AC
:10198000019A9A42F3D10268920333D50121009162
:101990001A490A6842F010020A600A6822F003023B
:1019A0000A600A6842F002020A60416841604168C8
:1019B0004160416841F480614160416821F47C11DB
:1019C0004160416841F4E8114160016841F0807173
:1019D000016001688901FCD5416821F00301416083
:1019E000416841F0020141604168C1F3810102296F
:1019F000FAD10CBD00910CBD001002400020024045
:101A000038B5FFF72DF901210C022046FFF720FE23
:101A100001212046FFF71CFE01210820FFF730FEC0
:101A200001210846FFF72CFE01211348FFF762FB56
:101A3000A001ADF8000003208DF8020014208DF8FD
:101A4000030069460D48FFF703FB002000F0E0FAB1
:101A5000FFF760FC012000F0DBFAA4022046FFF74C
:101A60002DF8074908200C6048710120887108464C
:101A7000FFF73AF838BD000000023000000C0140CA
:101A80001400002010B50020FFF706FE0121BDE87C
:101A90001040C805FFF7E8BD70B516480068174D3F
:101AA0000004C10B14480144098989B200EB4104C8
:101AB0002868017A09290FD0217801706178417076
:101AC000A088FEF7A0FB296848802089FEF79BFBD1
:101AD00029688880A089C880286801210172C0888F
:101AE00028B1FEF703FFBDE87040FFF779BDFFF7AF
:101AF000D7FCF8E7505C004000600040D4030020B1
:101B00002DE9F04138480068017811F07F0102D0DA
:101B1000022905D066E0417A01F0DF0141724EE012
:101B2000418800295ED10179F1BB4179304D21F026
:101B300080040A0605EB84022C4BD2F8002C03D556
:101B4000C2F30112120102E0C2F3013212031E7845
:101B50002346A64246D93AB3807A28B308064FEA0C
:101B600084000ED52844D0F8000CC0F301100128E1
:101B700021D11846FEF70EFC20463021FFF7D4FE97
:101B800019E04619D6F8000CC0F30130012812D133
:101B90004BF68F7748F28008A4B11846FEF7E6FBB3
:101BA000D6F8000C384000E01CE080F4405040EAD9
:101BB0000800C6F8000C0F48006840698047002004
:101BC000BDE8F0810C4890F82C100020FFF76CFE67
:101BD000D5F8000C384080F4405040EA0800C5F8C1
:101BE000000CE8E70220EBE7D40300209403002078
:101BF00000500040DC0300202C03002010B5074CEF
:101C000030B1074800680068804720680A3010BD7E
:101C1000216801200882002010BD0000D4030020AC
:101C2000DC030020054A13685A8A10B10868104482
:101C300070478888801A188200207047D4030020DB
:101C400010B5074C30B107480068806880472068AD
:101C50000C3010BD216801200882002010BD00005A
:101C6000D4030020DC030020204910B5096860B1CE
:101C70001F48002202800A7853060AD002F07F0231
:101C8000012A16D0022A16D001E002200882002084
:101C900010BD497A8A06027802D542F0020201E0BC
:101CA00002F0FD0249060270D1B211D401F0FE012A
:101CB00010E00F4810BD4A79110713060D4A02EBD8
:101CC0009161D1F8001C07D5C1F3011106E001783C
:101CD00041F00101017003E0C1F301310129F6D0A7
:101CE0000548006800698047E3E70000D40300204E
:101CF000CE03002000500040DC0300200A4810B54D
:101D000000680A4AC1785278914203D882780AB9A9
:101D100082880AB1022010BD8172054800684068BF
:101D20008047002010BD0000D40300209403002051
:101D3000DC030020064810B50068417A41F020011C
:101D4000417204480068C0698047002010BD00004F
:101D5000D4030020DC03002070B51D481D4D03682E
:101D6000597921F0800005EB80000C06D0F8004C7A
:101D700021F0800203D5C4F30114240102E0C4F36E
:101D800001342403144D2D78954210D95A8872B924
:101D90006CB19A7A5AB10906D0F8001C48F2800258
:101DA00007D548F6BF73194081F0100106E0022004
:101DB00070BD4BF68F73194081F480511143C0F808
:101DC000001C0648006880698047002070BD000044
:101DD000D40300200050004094030020DC030020C6
:101DE00010B50E4C0E4A20681268C178926940798D
:101DF000904721688A7A22B118B9087908B9887899
:101E000008B1022010BD07480068C06880472068FC
:101E10004179C172C1780173002010BDD403002044
:101E2000D8030020DC030020F8B52B4900200090E7
:101E30000A682A4B2A4C92B203EB8005D5F8005C65
:101E4000ADB244F82050401C0828F5D342F480601D
:101E5000086040F00100086020F001050D601E4A96
:101E6000121D10684005FCD54FF6FF3010600020B1
:101E700054F8206003EB8007B6B2C7F8006C401C32
:101E80000828F5D345F008000860086880B240F0E3
:101E900004000860134B18680090186820F00300D5
:101EA00040F0010018601048046844F00404046025
:101EB0001468E40401D430BF09E04EF6FF741460E6
:101EC0000A6892B222F008020A600099196001685B
:101ED00021F004010160F8BD405C0040005000406A
:101EE000E80700200070004010ED00E0704700009F
:101EF0000F4810B5016841F00101016041680D4AC9
:101F00001140416001680C4A11400160016821F4F0
:101F100080210160416821F4FE0141604FF41F01FE
:101F20008160FFF719FD05494FF00060086010BDA2
:101F3000001002400000FFF8FFFFF6FE08ED00E091
:101F40002DE9F04706462A482A4CDFF8AC90C278C3
:101F500081782B4B12EB01272760C1798079274AC2
:101F600000EB01216160D9F800804FF0090C4FF0BF
:101F70000000B8F8125016D0012F32D983F800C0F3
:101F800082F804C050709070D070B802E268A0F57A
:101F900000601044FFF7E8F9A188491B89B2DEB15F
:101FA0002844BDE8F087032902D90221197001E015
:101FB00083F800C019781171507012499070D07078
:101FC000087021204870412088700EB10846E8E76B
:101FD0000320A8F8100002E0D9F8000001820020D8
:101FE000DFE70F211970117150709070D070F6E713
:101FF000080800200C030020D40300202800002043
:102000001C000020E80300204FF48020FEF756BD9E
:10201000044A00284FF48041104601D0FFF79FB8D2
:10202000FFF79BB8000C01400648054902220160F9
:102030000A72064A0449C0E9011208680047000014
:1020400008080020D40300202C030020980300205F
:1020500038B54FF4A060FFF719FA14208DF800008E
:1020600002208DF8010000248DF8024001258DF832
:1020700003506846FFF7D8F92A208DF800008DF844
:1020800001408DF803506846FFF7CEF938BD0000D7
:102090002DE9F0414A4E88B000243068494D6880EF
:1020A0006888494F39880840000401D5FEF7B0F828
:1020B000688839884FF6FF380840400504D5C6F8CF
:1020C0000080424840688047698838880140890418
:1020D00002D54DF6FF71316069880140C80405D50D
:1020E0004EF6FF7030600020FFF7F0FA68883988FC
:1020F000084000050BD53648007810B1FFF794FE74
:1021000002E00220FFF7E2FA4FF2FF7030606988C8
:1021100038880140890505D54FF6FF51316029788F
:10212000491C297069880140C80545D54FF6FF60F4
:1021300030602348001D00684FF00001000437D5CF
:102140006868401C68606868032832D91C48001F12
:10215000026812072DD4026892B2AA601D4A6B462B
:1021600002EB8407D7F8007CBFB243F82470641CEC
:10217000082CF5D3AC6844F00104AC60AC68A4B2A0
:102180000460AC6824F00104AC60AC68A4B20460E4
:1021900030684005FCD5C6F80080002053F8204088
:1021A00002EB8006A4B2C6F8004C401C0828F5D308
:1021B00069600720FFF78AFA08B0BDE8F0810000E7
:1021C000445C0040C8020020E00300202C030020F3
:1021D000C003002000500040FFF75ABF054900200F
:1021E000086005494FF43F4008800249091F086014
:1021F00000207047445C0040E0030020FEE7000040
:10220000094B10B5521C520803EB41010AD000BF24
:1022100010F8013B521E10F8014B43EA042321F849
:10222000043BF5D110BD00000060004002E008C88A
:10223000121F08C1002AFAD170477047002001E040
:1022400001C1121F002AFBD17047000001214FF08D
:10225000C050FFF709FA124D28681249124C084085
:10226000B0F1005F0ED10420FDF7BCFFA0F5B44132
:102270005A3907D06868A0606060296881F30888CF
:102280008047FEE708490A200C3120700870087169
:10229000FFF7B6FBFFF7F6FBFFF7C6FEF1E700001E
:1022A000004000080000FE2F1C00002070B504460E
:1022B00000F0E0F80D4D04212846FEF74EFFD8202F
:1022C00000F0A8F8C4F3074000F0A4F8C4F3072016
:1022D00000F0A0F8E0B200F09DF804212846FEF7D7
:1022E0003EFFBDE8704000F0AFB80000000C0140B8
:1022F00010B586B000F02EF804211448FEF72FFF29
:102300000020ADF800004FF48271ADF80210ADF876
:1023100004000221ADF806100121ADF808104902B1
:10232000ADF80A100821ADF80C10ADF80E0007202A
:10233000074CADF8100069462046FFF773FA0121FB
:102340002046FFF71DFA06B010BD0000000C01404A
:102350000030014038B501210C20FFF791F901212F
:102360000803FFF78DF92020ADF8000003208DF859
:1023700002001820104D8DF8030069462846FEF72C
:1023800067FE8020ADF8000069462846FEF760FE33
:102390004020ADF8000004248DF80340694628462B
:1023A000FEF756FEADF8004010208DF80300694698
:1023B0000248FEF74DFE38BD00080140000C014008
:1023C0002DE9F041124F0D460646144604213846C9
:1023D000FEF7C3FE032000F01DF8C5F3074000F030
:1023E00019F8C5F3072000F015F8E8B200F012F86C
:1023F00004E0A52000F00EF806F8010B641EA4B25C
:10240000F7D23846BDE8F0410421FEF7A8BE00002F
:10241000000C014070B50B4C054602212046FFF729
:10242000B9F90028F9D029462046FFF7BCF9012167
:102430002046FFF7AFF90028F9D02046FFF7B1F9A1
:10244000C0B270BD0030014010B5094C04212046D7
:10245000FEF783FE0520FFF7DDFFA520FFF7DAFF7B
:10246000C007FAD12046BDE810400421FEF777BE30
:10247000000C014010B5074C04212046FEF76DFE0C
:102480000620FFF7C7FF2046BDE810400421FEF7F5
:1024900066BE0000000C01402DE9F04114460D46D7
:1024A0000646FFF7E7FF114F04213846FEF755FEB9
:1024B0000220FFF7AFFFC5F30740FFF7ABFFC5F3FF
:1024C0000720FFF7A7FFE8B2FFF7A4FF03E030788B
:1024D000FFF7A0FF761C641EA4B2F8D20421384690
:1024E000FEF73DFEBDE8F041FFF7AEBF000C014036
:1024F000B80B1400E803190032003200E803190099
:10250000E8032D002425000800000020E803000057
:102510008C0100089C260008E80300204008000009
:102520003C220008012E13120132011640830411CF
:10253000DF1009020102030109022D130101358098
:102540002009041DFE010204092A01091A05092AAD
:102550000209260609210BFF100B041A01040309C6
:10256000042603531254124D126912631272126F31
:1025700012651A6C0412633A740E3A6E1812735A8A
:1025800014261233123212201244124612559A1A8D
:1025900014E1146203401A493C1A744A1A72081A68
:1025A00061541A20341A6C0A12731A680C12201221
:1025B0002F12301A78041A38048902291612363A72
:1025C0002A0C12321A4B301A2C081A350E89145A5A
:1025D000676212531A5066C9581A3A043A4D321AB1
:1025E00050487A3466C902122F1A31241A385429F5
:1025F00024495201101A6A62124E124F0A15526291
:1026000012395A57465A4666294CE9CC298A29D0AC
:10261000091868092A6A0A17476A69D049080932FD
:102620006A3A536A12475A4C44093C6AD113DD1383
:102630000A320804D1124023082E3B20120B11331A
:10264000202D13B506140851051B0815081A190486
:1026500013DD03140899041B0889041A5D041A5138
:10266000041A6904493F211A6D3832041A7108327C
:10267000261A970832141AAB08321A1AC5083262A1
:102680004B2701081A8908326A4B0101C41AF16C00
:0C2690000916AC1A098041192B01250025
:0400000508000131BD
:00000001FF
