:020000040800F2
:10000000280E002001010008330A00087D090008BD
:10001000310A00089F010008051B000800000000CD
:10002000000000000000000000000000B50E000805
:100030006D06000800000000ED0B0008CD1500085B
:100040001B0100081B0100081B0100081B01000820
:100050001B0100081B0100081B0100081B01000810
:100060001B0100081B0100081B0100081B01000800
:100070001B0100081B0100081B0100081B010008F0
:100080001B0100081B0100081B0100081B010008E0
:100090008D1A00081B0100081B0100081B01000845
:1000A0001B0100081B0100081B0100081B010008C0
:1000B0001B0100081B0100081B0100081B010008B0
:1000C0001B0100081B0100081B0100081B010008A0
:1000D0001B010008211600081B0100081B01000875
:1000E0001B0100081B010008A9180008DFF80CD04C
:1000F00000F018F800480047931D0008280E002063
:100100000648804706480047FEE7FEE7FEE7FEE7B1
:10011000FEE7FEE7FEE7FEE7FEE7FEE7D115000893
:10012000ED000008064C074D06E0E06840F00103D2
:1001300094E8070098471034AC42F6D3FFF7DAFF93
:10014000001F0008201F000870B58C1810F8015B14
:1001500015F0070301D110F8013B2A1106D110F860
:10016000012B03E010F8016B01F8016B5B1EF9D164
:100170002B0705D40023521E0DD401F8013BFAE7EA
:1001800010F8013BCB1A921C03E013F8015B01F855
:10019000015B521EF9D5A142D8D3002070BDFEE705
:1001A000C1B2000A40EA0120704700002DE9F84F73
:1001B0000020ADF80000DFF834A14BF6BF7648F21E
:1001C00080074A4D4A4C40F68F7848F60F7BDFF89F
:1001D00024910AF1440A31E00888474A10F00F00E0
:1001E000107034D0454901EB8001D1F8002CADF8F6
:1001F0000020BDF8002012040BD5D1F8002C02EA33
:100200000802C1F8002C3E4901EB800050F8040CB4
:100210008047BDF80000000610D537483749007800
:1002200001EB8001D1F8002C02EA0B02C1F8002C8E
:10023000344901EB800050F8040C8047DAF80000E4
:100240004946A9F800000004C6D4BDE8F88F286824
:100250002080208800F030006080208800F440502A
:1002600020802868304080F4005080F0200038431F
:1002700028600888C006286815D400EA0B002860AA
:1002800000F07EFB26E02188890401D580F400502F
:100290006188C90626D46188890601D580F02000CE
:1002A00038432860D1E7ADF80000BDF80000000534
:1002B00006D5286800EA0800286000F05DFF09E024
:1002C000BDF800000004B9D5286800EA08002860DD
:1002D00000F058FC286821883040C904D3D580F448
:1002E0008050D0E780F01000D5E70000005C0040AF
:1002F000360100203A000020240100200050004078
:100300006000002044000020810008480844D0F824
:10031000001C490409D5D0F8001C48F68F72114022
:100320004CF280021143C0F8001C7047005000409E
:10033000810008480844D0F8001C490609D5D0F8C7
:10034000001C48F68F72114048F2C0021143C0F8F9
:10035000001C704700500040810006480144D1F85D
:10036000000C48F68F62104048F280021043C1F83A
:10037000000C7047005000402DE9F047DFF89480F2
:10038000254F4FF03009D8F8001001F11005088A08
:100390000E7A08B9042E04D0AC88A04215D80426E1
:1003A00014E01E480178012903D007261020388068
:1003B0002BE01B4A002112681A4B120403EBD232C5
:1003C0005160A7F8009001701FE00226844200D916
:1003D0000446A968204688478246002000F06AFA51
:1003E00001462246504601F08FFB2146002000F0D6
:1003F000F9FD2888001B2880688820446880A7F8B9
:10040000009009494FF440500880D8F80000067267
:10041000BDE8F087280100203801002020010020DD
:10042000505C004000600040360100202DE9F0479C
:10043000224EDFF88C803027356835F8100FA96818
:10044000A9B100B3AC88844200D90446204688474D
:1004500081462888001B2880688820446880002006
:1004600000F008FA01462246484600F0AFFB288813
:1004700048B114494FF4405008800021084600F06C
:10048000B1FDA8F800702888A988884201D303200C
:1004900001E020B1052031680872BDE8F0873168BD
:1004A00006200872084900200968084A090402EB7E
:1004B000D1314860A8F80070EFE700002801002063
:1004C0003801002036010020505C004000600040F0
:1004D000F8B55D4C5D4D09262068002729684278F3
:1004E000062A05D0AAB1082A4DD00A2A50D06BE0BE
:1004F0000278520668D18078012804D0022804D0FE
:10050000032804D060E0C96956E0096A54E0496AEA
:1005100052E04288B2BBC288022A55D102798ABB16
:100520000278530601D1838833B102F07F02012A99
:1005300004D0022A0CD047E045493DE08A69407961
:1005400000219047F0B92068807A0028F4D13BE080
:10055000417901F00F0001F070020B063D4901EBFB
:100560008001D1F8001C03D5C1F30111090102E09B
:10057000C1F301310903384B1B78834224D90AB9EE
:100580000029D9D120E0007840061DD1334913E07D
:10059000027802F07F02012A16D1827AA2B1428843
:1005A00092B9027982B9C288012A0DD18A6940794B
:1005B0000021904740B92A4931B1206847828161C2
:1005C00000208847002006E02968206809694078F3
:1005D0008847032813D021680A8AA2F57F43FF3B8E
:1005E0000BD002280ED06AB10878000626D5C8883C
:1005F000009082420AD9088218E00E72F8BD206885
:100600000672F8BD4FF008000872F8BD0ED22868D7
:10061000144B90F82C00824201D21F7006E0B2FB0E
:10062000F0F400FB142008B901201870286890F835
:100630002C008882BDE8F840FFF79EBE03200872B8
:10064000094900030880F8BD280100202C01002082
:100650004913000800500040E8000020DD120008A7
:1006600021130008200100203601002070470000FF
:1006700070B51448017801290FD1134C0026236866
:1006800053B11249402B086882B207D94030402547
:10069000403B0860236005E0067070BD18440860A8
:1006A0009DB226600A48C02110442A4601F02CFA67
:1006B0002946012000F096FCBDE87040012000F0C2
:1006C000B7BC0000000000200C0000200800002043
:1006D000A801002010B50649032001F0E9F9C1B2D4
:1006E000034801F0F7F9BDE81040032000F058BCC2
:1006F000A809002001490860704700001404014067
:1007000030B51A498379026853B30B6893430B6081
:100710000A1D13680468A343136002790A4413682E
:10072000046823431360114A083213680468A34322
:100730001360131D1C680568AC431C604479102CC1
:1007400005D021440A68006802430A6030BD116880
:10075000046821431160196800680143196030BDC5
:100760000079084401689143016030BD00040140F4
:10077000F0B5CA78002502F00F03D20601D58A78B9
:1007800013430A784FF00F0E12F0FF0F4FF00102E3
:100790001CD004680F8802FA05F63740B74211D121
:1007A0004FEA850C0EFA0CF724EA070703FA0CF45B
:1007B0003C43CF78282F02D0482F02D002E0466178
:1007C00000E006616D1C082DE4D304600C88FF2C4A
:1007D0001ED944685FF0000606F1080702FA07F523
:1007E0000F882F40AF420FD14FEA860C0EFA0CF75C
:1007F000BC4303FA0CF73C43CF78282F00D1456166
:10080000CF78482F00D10561761C082EE4D34460D0
:10081000F0BD0000F0B5144C002801DAE36900E0F7
:100820006368420D120185B2C0F301579540C0F3D1
:100830000346032F05D0C2020AD50322B2409343D8
:1008400007E023F07062636823F07063636002E086
:10085000AB4343F0706201B12A43002801DAE26140
:10086000F0BD6260F0BD00000000014041617047D2
:10087000016170470549096889B201EBC00004496C
:1008800001EB4000008980B270470000505C0040DE
:10089000006000400549096889B201EBC0000449C5
:1008A00001EB40008089C0F309007047505C0040B4
:1008B000006000400449096889B201EBC0000349A7
:1008C00031F8100080B27047505C0040006000407A
:1008D0000A4810B50168001D0468001D006808186A
:1008E0000BD00822064900F079F805492046042279
:1008F000BDE81040103100F071B810BDE8F7FF1FDF
:100900001A00002070B51B48017801290AD08268BE
:100910000021B2F5006F00D18160D0E9012393423C
:1009200001D1017070BD02D9C3F5006201E0A2EBF4
:1009300003021446C260402A9AB205D940254033CA
:10094000403CC0E9023403E02344C0E90231A5B2CF
:10095000012101700848C02110442A4601F0D4F852
:100960002946012000F03EFBBDE87040012000F068
:100970005FBB000000000020A8010020FEE700008F
:1009800010B5134C2068017A022904D0042902D042
:10099000062905D015E0FFF7EFFC2068007A11E08A
:1009A0004178052909D10178490606D1C07800F0BF
:1009B0008BFA08480068006A80470748006880682A
:1009C0008047082021680872BDE8104000F010B987
:1009D00028010020300100202C010020F0B5002368
:1009E0000A24302537261F4611E000BFB4EB107FE4
:1009F00002D905EB107C01E006EB107C01F813C076
:100A000001EB430C00015B1C8CF80170DBB29342DC
:100A1000ECD3F0BD0448817A044809B1052100E017
:100A20000121016000F0D4BD080A0020100100205F
:100A3000FEE770477047000070B50F23C478017857
:100A40000122F4B1144C2468457804F4E064C4F540
:100A5000E064240AC4F10406E3408478B5401C40F5
:100A60002C4301F1E021230181F80034007800F0EB
:100A70001F018A404009800000F1E020C0F80021F9
:100A800070BD01F01F0082404809800000F1E020A5
:100A9000C0F8802170BD00000CED00E00249084361
:100AA00002490860704700000000FA050CED00E004
:100AB00070B52F4D2868017844784A0606D001F0B9
:100AC0007F00012828D002282BD035E0092C06D041
:100AD000052C07D0032C0ED0012C14D02CE000F0F4
:100AE0007DFC28E0C1787F292ED8817861BB818880
:100AF00051BB807A27E0C17801291DD18088D8B9FF
:100B000000F088FC17E0C178012915D1818899B9D6
:100B1000407A80060AD40FE00B2C0DD100F0D0FCF7
:100B200009E0012C02D0032C03D005E000F058FBB3
:100B300001E000F081FC58B10E492046096849697E
:100B40008847032802D018B108200DE009200BE0E7
:100B5000094A062000211268084B120403EBD23226
:100B60005160074A302111802968087270BD000069
:100B7000280100202C010020505C00400060004053
:100B80003801002010B50F4C2068007A022811D0DF
:100B900004280FD0032804D0052802D0072805D048
:100BA00008E0FFF743FC2068007A04E0064800688C
:100BB000C0688047082021680872BDE8104000F036
:100BC00017B80000280100202C010020064B521C01
:100BD000520803EB410105D031F8043B20F8023BF9
:100BE000521EF9D1704700000060004070470000BD
:100BF0000C4810B590F82C10002000F099F90A4824
:100C00000068007A082802D0092809D006E00749C0
:100C10004FF480500880064910200880002010BD45
:100C2000012010BD9800002028010020360100207E
:100C30003801002010B5012000F03AFE06480121DD
:100C400001600021054A0160031D19604FF4E05165
:100C500011800160002010BD405C00403401002084
:100C6000044A0029D16901D0014300E08143D161E8
:100C70007047000000100240044A0029916901D029
:100C8000014300E081439161704700000010024081
:100C900030B51F494A6812F00C031E4A03D0042BDA
:100CA00001D0082B21D002604A680F231A4C03EAB6
:100CB0001212A35C0268DA4042604B68072505EA1D
:100CC0001323E35C22FA03F383604B6805EAD32322
:100CD000E35CDA40C2604968032303EA9131231FD1
:100CE000595CB2FBF1F1016130BD4A684B6802F416
:100CF00070124FF0020413F4803F04EB924202D0D2
:100D00004B689B0301D5054B00E0024B5A43CAE7F1
:100D10000010024000127A003E01002000093D0050
:100D20000149C1F8D8007047000042422DE9F04166
:100D3000214C072800D0207022781F4D062705215E
:100D400004261E48062A0BD2DFE802F0030C111617
:100D50001E27686810B12170BDE8F08100F030F8FE
:100D60002770F9E700F02CF82670012022E002201D
:100D7000607003202070EFE76078401E607060783C
:100D80000028E9D12670E7E7026892B242F010022B
:100D9000026021700A206070DEE76178491E617090
:100DA00061780029D8D1016889B221F01001016071
:100DB000277000206860CFE718010020405C0040E9
:100DC00010B5064C206880B220F004002060FFF7C8
:100DD00021FE4FF43F40206010BD0000405C004009
:100DE00007480068052809D106480168491C0160C8
:100DF000062903D100210160FFF784BD7047000080
:100E00001001002034000020F8B50E4604462749A2
:100E10002648083150F8240051F82410084340F0C7
:100E200001000121FFF728FF204D083DBCB301213F
:100E30000820FFF7EFFC55F824000121FFF710FF11
:100E400018208DF8030019486946183830F8140046
:100E5000ADF8000003208DF80200154850F824007A
:100E6000FFF786FC04208DF803001048694614380B
:100E700030F81400ADF800000D48083050F8240098
:100E8000FFF776FC0A4D3146083D55F8240000F086
:100E900087FC55F82400012100F0DAFBF8BDFFE7DC
:100EA00001212868FFF7E8FECAE70000701E00086D
:100EB0005801002070470000024920F00700086038
:100EC00070470000505C0040F0B50E490E4D48F6EA
:100ED0008F770B78002148F2800C0BE0CEB205EB47
:100EE0008604D4F8002C3A40324342EA0C02C4F89B
:100EF000002C491C9942F1D3044940F0800008605D
:100F0000F0BD0000E8000020005000404C5C0040B4
:100F1000054A21F00101126892B202EBC000034AB7
:100F200002EB400081607047505C00400060004070
:100F30000D4A12683E2992B202EBC0000B4A02EB46
:100F4000400209D94809C90601D1401E80B24FF4B8
:100F5000004141EA802004E04808C90700D0401C55
:100F60008002106070470000505C00400C60004040
:100F700082000A480244D2F8000C4BF68F731840E6
:100F8000CB0401D580F48050890401D580F4005051
:100F900048F280010843C2F8000C7047005000403E
:100FA000810007480144D1F8000C4BF68F721040C5
:100FB00080F4405048F280021043C1F8000C7047A2
:100FC00000500040054A21F00101126892B202EB84
:100FD000C000034A42F8101070470000505C004007
:100FE00000600040044A126892B202EBC000034A5B
:100FF00002EB400041607047505C004000600040E0
:1010000082000A480244D2F8000C48F6BF73184028
:10101000CB0601D580F01000890601D580F02000B4
:1010200048F280010843C2F8000C704700500040AD
:10103000810007480144D1F8000C48F6BF72104007
:1010400080F0300048F280021043C1F8000C704775
:1010500000500040820005480244D2F8000C48F6D7
:101060008F1318400843C2F8000C7047005000402E
:101070000CB50021264801910091026842F48032AB
:1010800002604FF4A063026802F400320092019AF9
:10109000521C0192009A12B9019A9A42F3D1026845
:1010A000920333D5012100911A490A6842F01002D7
:1010B0000A600A6822F003020A600A6842F002022B
:1010C0000A604168416041684160416841F4806163
:1010D0004160416821F47C114160416841F4E811AC
:1010E0004160016841F08071016001688901FCD5AF
:1010F000416821F003014160416841F00201416013
:101100004168C1F381010229FAD10CBD00910CBDE7
:10111000001002400020024038B501212020FFF7D6
:10112000ABFD4FF40070ADF8000003208DF8020015
:1011300014208DF8030069460848FFF719FB4FF4A7
:1011400080242046FFF7D6FA054908200C60487134
:10115000012088710846FFF7D3FA38BD001401401A
:101160001000002010B50020FFF7DAFD0121BDE8D6
:101170001040C805FFF774BD70B516480068174DDC
:101180000004C10B14480144098989B200EB4104F1
:101190002868017A09290FD021780170617841709F
:1011A000A088FEF7FDFF296848802089FEF7F8FF38
:1011B00029688880A089C880286801210172C088B8
:1011C00028B1FFF785F9BDE87040FFF711BDFFF7C3
:1011D0006FFCF8E7505C00400060004028010020F0
:1011E0002DE9F04138480068017811F07F0102D004
:1011F000022905D066E0417A01F0DF0141724EE03C
:10120000418800295ED10179F1BB4179304D21F04F
:1012100080040A0605EB84022C4BD2F8002C03D57F
:10122000C2F30112120102E0C2F3013212031E786E
:101230002346A64246D93AB3807A28B308064FEA35
:1012400084000ED52844D0F8000CC0F3011001280A
:1012500021D11846FFF76CF820463021FFF7D0FE69
:1012600019E04619D6F8000CC0F30130012812D15C
:101270004BF68F7748F28008A4B11846FFF744F880
:10128000D6F8000C384000E01CE080F4405040EA02
:101290000800C6F8000C0F4800684069804700202D
:1012A000BDE8F0810C4890F82C100020FFF740FEBC
:1012B000D5F8000C384080F4405040EA0800C5F8EA
:1012C000000CE8E70220EBE728010020E8000020FE
:1012D00000500040300100209800002010B5074C5D
:1012E00030B1074800680068804720680A3010BDA8
:1012F000216801200882002010BD00002801002084
:1013000030010020054A13685A8A10B10868104459
:1013100070478888801A18820020704728010020B2
:1013200010B5074C30B107480068806880472068D6
:101330000C3010BD216801200882002010BD000083
:101340002801002030010020204910B5096860B153
:101350001F48002202800A7853060AD002F07F025A
:10136000012A16D0022A16D001E0022008820020AD
:1013700010BD497A8A06027802D542F0020201E0E5
:1013800002F0FD0249060270D1B211D401F0FE0153
:1013900010E00F4810BD4A79110713060D4A02EB01
:1013A0009161D1F8001C07D5C1F3011106E0017865
:1013B00041F00101017003E0C1F301310129F6D0D0
:1013C0000548006800698047E3E700002801002025
:1013D0002201002000500040300100200A4810B5D2
:1013E00000680A4AC1785278914203D882780AB9D3
:1013F00082880AB1022010BD8172054800684068E9
:101400008047002010BD000028010020E8000020D7
:1014100030010020064810B50068417A41F02001F3
:10142000417204480068C0698047002010BD000078
:10143000280100203001002070B51D481D4D0368B3
:10144000597921F0800005EB80000C06D0F8004CA3
:1014500021F0800203D5C4F30114240102E0C4F397
:1014600001342403144D2D78954210D95A8872B94D
:101470006CB19A7A5AB10906D0F8001C48F2800281
:1014800007D548F6BF73194081F0100106E002202D
:1014900070BD4BF68F73194081F480511143C0F831
:1014A000001C0648006880698047002070BD00006D
:1014B0002801002000500040E800002030010020FA
:1014C00010B50E4C0E4A20681268C17892694079B6
:1014D000904721688A7A22B118B9087908B98878C2
:1014E00008B1022010BD07480068C0688047206826
:1014F0004179C172C1780173002010BD280100201C
:101500002C01002030010020F8B52B49002000906C
:101510000A682A4B2A4C92B203EB8005D5F8005C8E
:10152000ADB244F82050401C0828F5D342F4806046
:10153000086040F00100086020F001050D601E4ABF
:10154000121D10684005FCD54FF6FF3010600020DA
:1015500054F8206003EB8007B6B2C7F8006C401C5B
:101560000828F5D345F008000860086880B240F00C
:1015700004000860134B18680090186820F00300FE
:1015800040F0010018601048046844F0040404604E
:101590001468E40401D430BF09E04EF6FF7414600F
:1015A0000A6892B222F008020A6000991960016884
:1015B00021F004010160F8BD405C00400050004093
:1015C000E80900200070004010ED00E070470000C6
:1015D0000F4810B5016841F00101016041680D4AF2
:1015E0001140416001680C4A11400160016821F41A
:1015F00080210160416821F4FE0141604FF41F0128
:101600008160FFF735FD05494FF00060086010BDAF
:10161000001002400000FFF8FFFFF6FE08ED00E0BA
:1016200010B50A4C40F22551204600F082F808B16E
:1016300000F014F90821204600F074F8002804D0C6
:101640002046BDE8104000F001B910BD003801404F
:101650000029818902D041F4005101E021F40051B8
:10166000818170471E4A10B513791E48002123B1AD
:10167000012B04D0022B1CD104E0C18005E04FF403
:10168000405301E04FF40053C380537923B1012B41
:1016900004D0022B0DD104E0018105E04FF48063FA
:1016A00001E04FF4C06303819379072B0BD0082B23
:1016B00003D000F019F8002010BD03891BB14FF4CE
:1016C0008053838000E081801268026081810C2158
:1016D000418104490020FFF797FB012010BD000065
:1016E00080000020980100200C4810B54FF41651DE
:1016F000016000218180C1804FF4C062028181813C
:101700000C21418101460020FFF77EFBBDE810401F
:10171000012240F22551024800F02AB89801002029
:10172000003801400246002012880A4200D0012001
:10173000704730B501F01F0201240025C1F34213A8
:1017400004FA02F2012B0FD0022B0FD0838A4FEA4A
:1017500011210088134204FA01F400EA040001D0C8
:1017600000B10125284630BD8389F0E7038AEEE702
:1017700010B5C1F3421301F01F040121A140012B58
:1017800007D0022B07D01430002A026805D00A4384
:1017900004E00C30F8E71030F6E78A43026010BD31
:1017A00030B50446008A85B00D464CF6FF710840FE
:1017B000E98801432182A1894EF6F3100140A888EF
:1017C0002A8910436A890A431043A081A08A4FF6F0
:1017D000FF410840A9890143A1826846FFF758FAF2
:1017E0001948844201D1039800E00298A1890904B4
:1017F00000EBC00101EB0010296801D5490000E0B1
:101800008900B0FBF1F06422B0FBF2F109010B0991
:101810006FF018056B4300EB8300A3891D044FF0A4
:10182000320306D503EBC000B0FBF2F000F0070076
:1018300005E003EB0010B0FBF2F000F00F000843EE
:10184000208105B030BD0000003801408088C0F321
:1018500008007047C1F308018180704770B50E48D9
:101860000F4D104C81790D48072902D0082905D069
:1018700008E0FFF7EBFF00F07F0001E0FFF7E6FF75
:10188000616868546068401C6060B0F5006F01D109
:101890000020606070BD0000800000200038014022
:1018A000A8010020000000204FF48020FEF722BF96
:1018B000044A00284FF40071104601D0FEF7D6BF4D
:1018C000FEF7D6BF00140140064805490222016018
:1018D0000A72064A0449C0E901120868004700007C
:1018E000080A00202801002098000020EC000020B9
:1018F00038B54FF4A060FFF7D1F814208DF8000040
:1019000002208DF8010000248DF8024001258DF899
:1019100003506846FFF790F82A208DF800008DF8F4
:1019200001406846FFF788F825208DF800008DF803
:1019300001506846FFF780F838BD00002DE9F041FE
:101940004C4E88B0002430684B4D688068884B4FFF
:1019500039880840800507D54FF6FF503060287859
:10196000401C2870FFF73CFA68883988084000045A
:1019700001D5FEF71BFC688839884FF6FF38084010
:10198000400504D5C6F800803D4840688047698816
:1019900038880140890402D54DF6FF7131606988AD
:1019A0000140C80405D54EF6FF7030600020FFF7F7
:1019B000BDF968883988084000050BD531480078A2
:1019C00010B1FFF7A1FD02E00220FFF7AFF94FF2DF
:1019D000FF703060688839880840C00546D54FF6EA
:1019E000FF6030602348001D00684FF000020004D3
:1019F00038D56868401C68606868032833D91D487A
:101A0000001F016809072ED4016889B2A9601E4928
:101A10004FEA0D0301EB8407D7F8007CBFB243F80F
:101A20002470641C082CF5D3AC6844F00104AC604D
:101A3000AC68A4B20460AC6824F00104AC60AC688B
:101A4000A4B2046030684005FCD5C6F800800020D0
:101A500053F8204001EB8006A4B2C6F8004C401CAD
:101A60000828F5D36A600720FFF760F908B0BDE8E1
:101A7000F0810000445C0040380000203401002068
:101A8000980000201401002000500040FFF756BFCE
:101A900005490020086005494FF43F40088002498D
:101AA000091F086000207047445C0040340100209A
:101AB00070B500F07F060D463046FEF7EBFE04469B
:101AC0003046FEF7D7FE014622462846FFF77EF84D
:101AD000204670BD2DE9F0410E4607460024084D12
:101AE0000AE0395D2846FFF7B5FE80212846FFF75A
:101AF00019FE0028F9D0641CB442F2D3BDE8F0818D
:101B000000380140FEE70000094B10B5521C520896
:101B100003EB41010AD000BF10F8013B521E10F840
:101B2000014B43EA042321F8043BF5D110BD00002A
:101B300000600040104A10B500211268212802D030
:101B4000202807D016E0107800F07F00212811D15E
:101B50000A4908E0107800F07F00212800D10849E8
:101B6000084B2020187029B10020916150828847CD
:101B7000002010BD022010BD28010020A11B00087C
:101B8000151D00087C0000200149FFF7BBBB0000C9
:101B9000900000200149FFF7B5BB0000880000203D
:101BA00008B10448704704490820096808820020E9
:101BB00070470000800000202801002005490968C6
:101BC000C978042901D900207047034A02EBC101FA
:101BD000FFF798BB28010020C800002009B90128A0
:101BE00001D90220704700207047000007490968AA
:101BF000097801F07F01212903D1022803D022288E
:101C000001D002207047002070470000280100200A
:101C1000334810B50068334A00218172D27942728C
:101C2000C1720846FFF748F94FF400710020FFF732
:101C300011FA10210020FFF7E3F940210020FFF7FF
:101C400067F980210020FFF7BDF90020FEF784FB33
:101C5000254890F82C100020FFF76AF90020FFF7C4
:101C60009FF900210120FFF7F5F9C0210120FFF7BE
:101C7000A9F920210120FFF7C3F900210120FFF776
:101C800077F94FF4C0610220FFF7E4F94FF4807157
:101C90000220FFF797F900210220FFF769F92021C0
:101CA0000220FFF7ADF900210320FFF7D3F94FF42D
:101CB00088710320FFF72CF940210320FFF738F942
:101CC0004FF440510320FFF753F900210320FFF7A1
:101CD00097F90020FFF7F8F804490120086010BDCB
:101CE00028010020B61D00089800002010010020E7
:101CF0000348807A002802D0024905200860704716
:101D0000080A0020100100200149042008607047E3
:101D10001001002008B104487047044908200968F0
:101D20000882002070470000800000202801002069
:101D300010B5044C2078202803D1FFF793FC002035
:101D4000207010BD7C0000207047000010B5FEF729
:101D5000BFFD0648002400688472FEF76BFFFFF7A2
:101D600097FEFFF7C1FC0248046010BD2801002067
:101D70001001002002E008C8121F08C1002AFAD191
:101D800070477047002001E001C1121F002AFBD1FB
:101D90007047FFF7C1F9FFF7E5F9FFF7A9FDFFF776
:101DA00093FDFEE712010002020000408304405749
:101DB00000020102030109024300020100C03209CE
:101DC00004000001020201000524001001052401A5
:101DD000000104240202052406000107058203080D
:101DE00000FF09040100020A000000070503024089
:101DF0000000070581024000000403090426035384
:101E00000054004D006900630072006F0065006CB3
:101E10000065006300740072006F006E006900636B
:101E20000073003203530054004D00330032002091
:101E3000005600690072007400750061006C00209B
:101E40000043004F004D00200050006F00720074EE
:101E500000200020000000000002200000044000DC
:101E600000028000000100020040000000000200AB
:101E7000040000002000000004000000200000001A
:101E8000040000001000000010000000100000001E
:101E9000010000800002010002000001004000106B
:101EA00004000000080000000800000040000000DE
:101EB0004000000020000000200000002000000082
:101EC000010000800002010002000001004000103B
:101ED00000000100010004000400030003000300EF
:101EE00000000F0009000000010008000E000C00B7
:101EF0000600280017000600070017002800280029
:101F0000201F000800000020980100004801000880
:101F1000C81F000898010020900C0000841D0008D4
:101F20000118141A03531254124D123302213213A2
:101F300071060C1C08350A040A11D5245133C2015C
:101F4000120813A41D3308121AB60832431A4D089A
:101F500013111C1B0831081A490413351B1B08ED0B
:101F6000041ADD041A95041A89041ABD044132408A
:101F70001AF92432041AFD08322613231E2A08BA3D
:101F8000221833201A1A046729741AF1540916A466
:101F90001A093C41299201224C0204062E2C02030C
:101FA00004043506070809143801401A44931A0836
:101FB000081A1404A9089A100429105A0C045A1873
:081FC000042928590400000067
:04000005080000ED02
:00000001FF
