:020000040800F2
:10400000B8050020014100087B4E0008D54D00088E
:10401000794E0008314300089D5E00080000000052
:1040200000000000000000000000000059530008DC
:10403000B549000800000000BD5000086D5B000895
:104040001B4100081B4100081B4100081B410008E0
:104050001B4100081B4100081B4100081B410008D0
:104060001B4100081B4100081B4100086547000870
:104070001B4100081B4100081B4100081B410008B0
:104080001B4100081B4100081B4100081B410008A0
:10409000315E00081B4100081B410008B14A0008BE
:1040A0001B4100081B4100081B4100081B41000880
:1040B0001B4100081B4100081B4100081B41000870
:1040C0001B4100081B4100081B4100081B41000860
:1040D0001B4100081B4100081B4100081B41000850
:1040E0006D4A00081B410008855C0008DFF80CD011
:1040F00000F018F800480047E55E0008B805002009
:104100000648804706480047FEE7FEE7FEE7FEE771
:10411000FEE7FEE7FEE7FEE7FEE7FEE7955B000849
:10412000ED400008064C074D06E0E06840F0010352
:1041300094E8070098471034AC42F6D3FFF7DAFF53
:1041400000610008206100088268002922F0010255
:1041500018BF013282607047F0B591B00120012193
:10416000012600F0E9FF4FF40070012100F0FCFF90
:104170002B4D284600F032FB4FF400502A4C00270C
:104180000A9020200B97CDE90577CDE903760990B9
:104190004FF4806008904FF480700790214802909F
:1041A00004F14C00019001A9284600F089FB284643
:1041B000012100F007FB28460221012200F078FBD4
:1041C0004FF460208DF840600F970C970E9040F2EE
:1041D0000110ADF834000CA9204600F039F8204653
:1041E00008210122052300F057F82046012100F0A4
:1041F0001DF820460121FFF7A7FF204600F076F8C2
:10420000204600F020F80028FAD1204600F07CF883
:10421000204600F014F80028FAD111B0F0BD00BF1C
:10422000080002406C01002000240140826800293F
:1042300022F4807218BF02F5807282607047806835
:10424000C0F3800070478068C0F3C0007047000072
:1042500010B542680E4B1A400B681A430B7942EABC
:1042600003220C4B426082681A40D1E90234224397
:104270001A434B7942EA43028260097CC26A0139DF
:1042800022F47002C9B242EA0151C16210BD00BFFE
:10429000FFFEF0FFFDF7F1FF70B501EB41040929C6
:1042A00088BF1E3C00F048FE88BF0C25465926EA10
:1042B00004042343062A435103D834306FF0040327
:1042C00007E00C2A87BF2C306FF0400330306FF0CE
:1042D000220302EB82021A441F23914003FA02F2E6
:1042E000036823EA02021143016070BD816841F056
:1042F0000801816070478268002922F4A00218BF7B
:1043000002F5A00282607047816841F0040181607B
:104310007047000081B000220092044A0092009A87
:10432000104400900098016001B07047006C00409C
:10433000FEE740BA704700002DE9F84F604C494F46
:10434000494E4C4DDFF828B100204FF0FF3843F6BE
:104350003F794AF2A00AADF80200606C3880000490
:104360007ED5388810F00F00307028D054F8201017
:10437000ADF80210BDF9021041450DDC54F82010D3
:1043800040F68F72114044F820103849307801EB24
:10439000800050F8040C8047BDF802000006DCD510
:1043A000307848F60F7254F82010114044F820106D
:1043B00030780BEB800050F8040C8047CDE7206884
:1043C0002880288800F030006880288800F4405059
:1043D0002880206800EA090080EA0A002060398805
:1043E0002068C90611D5ADF80200BDF8020000052D
:1043F00012D4BDF902004045AFDC206840F68F7151
:104400000840206000F0F2FD0DE048F60F71084012
:10441000206000F0E1FC06E0206840F68F71084063
:10442000206001F07BF820684BF6BF7108402988B6
:10443000C90448BF80F480502988890448BF80F4AB
:1044400000506988C90648BF80F010006988890655
:1044500048BF80F0200048F28001084380B220600D
:10446000BDE8F88F2E0100209801002008010020EF
:10447000EC00002068010020114951F8202052046E
:1044800009D551F8202040F60F731A404CF28003F2
:104490001A4341F820207047094951F8202052065C
:1044A00009D551F8202040F60F731A4048F2C00396
:1044B0001A4341F820207047014900F02ABD00BF8F
:1044C000005C004010B5A64909688A8812B1022430
:1044D000204610BD0A78062802F07F0208BF012A94
:1044E0000AD0212AF3D103280DD00928EFD10B4897
:1044F000092202700A4A09E08878222805D021287A
:10450000E5D1094A02E0044A00E0064A00240020FE
:104510008A614C829047DBE751450008A4010020E6
:10452000894600086545000845450008014901F035
:10453000D7B900BF20000020014901F0D1B900BF68
:1045400054000020014901F0CBB900BF2800002031
:1045500008B1194870478248012100680182002093
:10456000704700BF014901F0BBB900BF3000002017
:104570007B490968C978042984BF00207047024A32
:1045800002EBC10101F0ACB9A4000020084318BF40
:104590000120400070470000014602200B290AD18B
:1045A0006F4909680A7802F07F02212A03D1C8788E
:1045B00001490860002070479C01002010B5684840
:1045C0000021006841812549C9794172002000F02D
:1045D000C5FE00204FF4007100F052FF00201021B2
:1045E00000F030FF0020182100F0D8FE00205821F4
:1045F00000F016FF0020FFF75FFF194890F82C101D
:10460000002000F0CFFE002000F0FEFE01204FF45D
:10461000C061012400F034FF01204FF4807100F0EC
:10462000FFFE01204FF4827100F0B8FE012002214C
:1046300000F0FCFE0120022100F0B4FE01204FF446
:10464000405100F0CFFE0120202100F0FBFE0020B1
:1046500000F08AFE5848046010BD00BFC45F000827
:104660005C000020CD480068807A30B152480521B6
:10467000016002480121FFF73EBE7047002401405F
:104680004D4804210160704708B12A487047C3486B
:104690000221006801820020704700BF10B5254844
:1046A00001784078802901D1552830D0013903297B
:1046B00007D8DFE801F00212161A01281CD10020E9
:1046C00016E0E94C0020A0470120A0470220A047A7
:1046D00003202146BDE81040084701280ED10120E3
:1046E00006E001280CD1022002E001280AD10320B3
:1046F000BDE8104000F0C2BD002004E0012002E04F
:10470000022000E00320BDE8104000F0AFBD0A4CDD
:1047100045F65A21206840F4807020600420FFF79D
:10472000F9FD206820F480702060012080F3138858
:1047300001F0C6FBA201002000700040704700009D
:1047400010B500F02DFB954800240068847200F03D
:10475000D5FC01F06FFB01F0B5FAE748046010BD2D
:104760004001002070B5E5490720124D104C08703B
:10477000286822680009A0EB1212052A12D3DD4E28
:1047800032787AB1DC4A1268052A0BD14870812050
:10479000022201F06FFB012000F066FE0020307065
:1047A000286820600220BDE8704000F007B800BF14
:1047B000700100206C010020B00100202F4A00F0A1
:1047C000C2BB00BF10B502684FF6FE73002942F06D
:1047D000010408BF02EA0304046010BD01684FF63B
:1047E000FE721140264A0160002101604160816033
:1047F000C160224990422ED0224A90421ED0224AC5
:10480000904230D0214A904232D0214A904217D073
:10481000204A904217D0204A904217D01F4A904217
:1048200017D01F4A904218D01E4A904219D01E4AF3
:1048300090421BD01D4A904211D0704701F5806113
:104840004FF4702016E04FF4700013E04FF07060EA
:1048500010E001F580610F200CE001F58061F0208F
:1048600008E001F580614FF4706003E001F58061BC
:104870004FF470400A68104308607047040002401B
:104880000800024058040240300002404400024048
:10489000580002406C0002408000024008040240C0
:1048A0001C04024030040240440402401C00024048
:1048B000002A02680CBF22EA01011143016070471F
:1048C0002DE9F043026847F6F073D1E90258D1E9C7
:1048D0000479D1E90646D1E900CE9A432A43D1E9C9
:1048E0000853896A2A433A4342EA0902224332437F
:1048F0001A4311430160C0F80480C0F808C0C0F832
:104900000CE0BDE8F08300002DE9F843DFF8E08E0D
:10491000D8F80060378AAFB9307A042812D122481B
:104920000178012933D100211D4B302401701F482B
:1049300002681C801E4B03EA42021044C0F8B41304
:10494000042028E0B58A2C46BD4288BF3C46B169A8
:10495000204688478146002000F01EFA014648465E
:10496000224601F09DFA0020214600F05FFD0C4830
:10497000302101800B484FF44051018000F0E8FAEB
:104980000420AF4288BF0220D8F8006003E004484A
:104990001021018007203072BDE8F883400100201B
:1049A0006A0100206801002074010020505C004072
:1049B000FEFF01007047000008494988414308484C
:1049C00041600021816001210160016801F0011155
:1049D0000129FAD000210160816070472801002080
:1049E00010E000E0434801210170704710B51D4CF4
:1049F0000120214601F02CFA2078411E032910D80D
:104A00006078DFE801F00218060A012819D10020B9
:104A100014E0012817D1022010E0012815D103204D
:104A20000CE0114C0020A0470120A0470220A04725
:104A30000320A0470EE0012809D1012000F01EFC50
:104A400008E0002004E0022002E0032000E0012052
:104A500000F00CFC01204FF44051BDE8104000F084
:104A6000C1BC00BFA00100206D520008B0B54FF4DA
:104A7000004000F07FF8C8B11E4D287880B11E4874
:104A8000006805280CD11D4C06202070012000F084
:104A900001FC00F035FA012000F0E6FC002028704F
:104AA0004FF40040BDE8B04000F02AB8B0BD00BFF0
:104AB000B0B54FF4007000F05DF8C8B10D4D287826
:104AC00080B1EC48006805280CD10C4C0520207002
:104AD000022000F0DFFB00F013FA012000F0C4FC1C
:104AE000002028704FF40070BDE8B04000F008B816
:104AF000B0BD00BFA0000020B0010020A501002033
:104B000001490860704700BF140401402DE9FC41D1
:104B10004FF400706C46154F4FF001084FF480566B
:104B2000009020468DF80680ADF80460B847104D1F
:104B30004FF40070A8474FF400408DF80680ADF8A0
:104B4000046000902046B8474FF40040A8474FF457
:104B500080204FF48026A8474FF484700096ADF86B
:104B600005002046B847BDE8FC8100BF8D4B00081A
:104B7000014B00081C490A68024018BF012249691C
:104B8000084018BF01201040704700BF10B582795F
:104B90001549E2B102680B6893430B604B6893437D
:104BA0004B6003790B431C6822431A6002688B68D0
:104BB00093438B60CB689343CB60407910280ED130
:104BC000886810438860C8681043C86010BD0279C7
:104BD000006811430A6822EA0000086010BD08431B
:104BE00001681143016010BD000401407CB50C2038
:104BF0000121012600F0B8FA09480A4C019001ADE4
:104C00002046294600F024F800202946ADF804602B
:104C10008DF8070004F5806000F01AF87CBD00BF35
:104C20000080031400080140B0B50C22074C0F238C
:104C300002EA810201F0FC010D599340904025EAFF
:104C400003030B510A5910430851B0BD080001403D
:104C50002DE9F04391F8039009F00F085FEAC9636A
:104C600044BF8B7848EA030809880B0621D0046802
:104C700000254FF0010E4FF00F0C0027082F17D022
:104C80000EFA07F30B4210D00CFA05F208FA05F6FB
:104C9000B9F1480F24EA020242EA060404D0B9F14D
:104CA000280F08BF436100E0036104350137E5E7E1
:104CB0000460B1F5807F23D3446800254FF4807EE3
:104CC0004FF00F0C0027082F19D00EFA07F606EA4E
:104CD0000102B24210D10CFA05F308FA05F2B9F15B
:104CE000480F24EA030343EA020404D0B9F1280F71
:104CF00008BF466100E0066104350137E3E7446020
:104D0000BDE8F083F0B51A4A002800F440161446B6
:104D100002F1180348BF1C462568B6F5401F84B24F
:104D200006D1166825F0706526F07066166010E0F2
:104D3000C60206D46FF00F0606EA504604FA06F6DD
:104D400004E0C0F30346032707FA06F6B54345F02F
:104D50007065002848BF1A466FF00F0303EA504001
:104D6000002904FA00F018BF05431560F0BD00BF2C
:104D7000040001408068084018BF0120704741616D
:104D80007047016170470000C24900F01DB900BFC3
:104D9000C04900F00EB900BFBE4900F01EB900BF07
:104DA000B0B50A4908688A68801808BFB0BD084DC8
:104DB0004C680822A91C00F039F805F112012046C0
:104DC0000422BDE8B04000F031B800BFE8F7FF1F93
:104DD00038000020FEE7000010B5C54C2068017ABD
:104DE000022903D0062906D0042916D1FFF78CFD2D
:104DF0002068017A12E04178052909D10178490635
:104E000006D1C07800F0B0FA07480068006A804711
:104E1000A248006880688047206808210172BDE8C8
:104E2000104000F04DB900BF48010020F0B552001D
:104E3000002337240025AA4208BFF0BD070F04EB6A
:104E40001076B0F1204F38BF07F130064E5545F0CF
:104E50000106023500018B55EDE7000004480521ED
:104E6000807A0028034808BF0121016000F092BE4B
:104E70004C010020B0010020FEE7704770470000A1
:104E800070B5C2781149A2B1154A07231268457856
:104E90008678047823EA12220F23D340C2F1040259
:104EA000334005FA02F21A430B19120183F800236A
:104EB00000E080310078012300F01F02C0F34210AF
:104EC00003FA02F241F8202070BD00BF00E100E0CB
:104ED0000249084302490860704700BF0000FA0514
:104EE0000CED00E0024A1140084302490860704797
:104EF00080FFFF1F08ED00E0ADF8040020462847C2
:104F0000B0FA80F02146022240096070812000F052
:104F1000B1BF40F60F6351F820201A4048F28003D9
:104F20001A4341F82020704790F82C10002000F020
:104F300039BA1043086070470725A34005FA04F406
:104F4000102509297047010F61F38A22106070470C
:104F5000308A001B3082708A20447082704748F289
:104F60008001194389B242F8201010BD41F8202079
:104F70007047012100680182002080BD21F00101FD
:104F800013689BB203EBC00002EB4000C0F8B01303
:104F9000704721F0010113689BB203EBC00002EBE4
:104FA0004000C0F8B813704730F81400ADF80400A2
:104FB00070470A6892B202EBC00001EB4000D0F8E3
:104FC000BC036FF39F2070470A6892B202EBC000E7
:104FD00001EB4000B0F8B80370470A6892B202EBE8
:104FE000C00001EB4000B0F8B0037047F8B5404F87
:104FF0003E68307A032803D0072825D0052828D119
:10500000308A98B1B16989B1B48A844288BF0446B4
:10501000204688470546FFF79BFF0020FFF7B4FEB8
:1050200001462846224600F03BF8308A98B13148C4
:105030004FF4405101800020002100F0F7F92E4884
:1050400030210180308A07E014480068C06880473A
:105050003E68082019E00020B18A884203D23E68E9
:1050600028B1052001E03E68032030720DE00620E3
:10507000ED49214B302430720A681C80064B03EA4C
:10508000420211440022C1F8B4233072BDE8F84056
:1050900000F016B8505C0040FEFF01004401002003
:1050A000054B0132520803EB410122B108C9013A14
:1050B00020F8023BF9E770470060004070470000AD
:1050C00080B50A48FFF730FF09480068007A0828D1
:1050D00006D108494FF480520A80074910220A80FD
:1050E0000938B0FA80F0400980BD00BF5C000020A4
:1050F00040010020680100206A01002010B5012055
:10510000012400F0C3FDC820FFF756FC4A480021E7
:105110004FF4806204600160416002490A800260CD
:10512000002010BDB401002002490A6822F4404268
:10513000FFF7FFBE04100240044A002911680CBFAB
:1051400021EA000008431060704700BF14100240BD
:10515000044A002911680CBF21EA000008431060CE
:10516000704700BF1C100240044A002911680CBFA0
:1051700021EA000008431060704700BF1810024089
:1051800001490860704700BFD800424210B5224C68
:1051900007281CBF204908702078052836D8DFE88A
:1051A00000F003070D111722606868B3052030E096
:1051B00000F034F804202070012023E00220607009
:1051C000032026E0607801386070607800B310BD7D
:1051D0001948016841F0100189B201600520207072
:1051E0000A20607010BD6078013860706078002817
:1051F000EDD111484FF6EF720168114001600620B1
:1052000020700020606010BD00F008F8062000E06B
:105210000420207010BD00BF3801002010B5064CDE
:105220004FF6FB71206808402060FFF717FE4FF42F
:105230003F40206010BD00BF405C00401CB50446EC
:105240000948012150F82400FFF78EFF1048FFF7AE
:10525000ABFE41F20300ADF806000C4850F8240004
:1052600001A9FFF7F5FC1CBDE86000080749084AE2
:1052700051F8201032F81000486170470349044A81
:1052800051F8201032F8100008617047900000209B
:10529000F860000880B52B4951F82020284931F8E2
:1052A00010101046FFF766FD80BD00BF7FB50446B5
:1052B00022480D460121012650F8240040F001004B
:1052C000FFF752FF1E4830F81400ADF80C004820DC
:1052D000002C08BF28208DF80F001A4850F8240031
:1052E00003A9FFF7B5FC012D27D11748174910F87E
:1052F000140011F81410FFF797FC0C208DF80A60C9
:10530000002C08BF08208DF8090000208DF8080047
:105310000F4830F81400019001A8FFF737FC40F661
:105320000F708DF80360ADF801000A4810F8140002
:105330008DF800006846FFF7A3FD7FBD545F0008AD
:10534000945F000800000020B45F0008A45F00081C
:10535000745F0008845F000870470000384920F03F
:1053600007000860704700BF70B50B494A4A002328
:1053700040F60F7448F280050978994208D052F837
:10538000236026401E432E4342F823600133F4E796
:1053900040F08000D06470BD8C000020284AFFF7E8
:1053A000F8BD00BFB0B5264A3F2913680DD3CD061E
:1053B0004FF0FF344FEA511508BF04EB5115A9B265
:1053C0004FF4004444EA812104E001F0010404EBBD
:1053D000510189029BB203EBC00002EB4000C0F810
:1053E000BC13B0BD10B52C4A44F2700452F8203002
:1053F000A343CC0448BF83F48053890448BF83F49B
:105400000053FFF7ACBD00BFF64943F60F7351F8E8
:1054100020201A404BF280035A40FFF7A7BD00BF7F
:10542000074AFFF7ABBD00BF505C0040044A136859
:105430009BB203EBC00002EB4000C0F8B41370470E
:10544000505C004010B5E74A47F2400452F8203063
:10545000A343CC0648BF83F01003890648BF83F0FE
:105460002003FFF77CBD00BFDE4940F63F7351F8D3
:1054700020201A4048F2B0035A40FFF777BD00BF22
:1054800010B5D84A48F68F1452F8203023401943FB
:1054900042F8201010BD00BF005C004010B5042091
:1054A0000121FFF761FE01200121FFF75DFE134896
:1054B0000121FFF727FC4FF44040FFF735FEFFF7CF
:1054C00095FB002000F0E2FB1420FFF775FA0220A4
:1054D0000121FFF7EBFE01200121FFF7E7FEFFF7B7
:1054E00015FB074C0020A0470120A0470220A04741
:1054F0000320A047BDE81040FEF72EBE000230009A
:105500003D52000880B50020FFF73AFE4FF400003E
:105510000121BDE88040FFF71BBE00002DE9FC41E2
:10552000E64EDFF86485B04FB04D306DD8F800100E
:105530000A7A092A01D1C8881EE007EA40002844F7
:10554000D0F8070007EA40003218441992F8002406
:105550000A70425DB4F803004A70FEF7EAFED8F81C
:1055600000104880B4F80700FEF7E3FED8F80010FA
:105570008880B4F80B00C88001224C780A72D0B140
:10558000E20142EA5402D2B2052A4ED8DFE802F024
:10559000034D4D4A0E32022804D14A8812B90A79C5
:1055A000002A6AD00A2C25D0082C3ED10878400663
:1055B0003BD1924ACFE0087800F07F00022842D029
:1055C000012847D0002840F07A80601E082800F2A9
:1055D0007680DFE800F005745F746774747471009E
:1055E000C87801286BD18888002868D1487A80065D
:1055F0002DD464E00A7802F07F02012A15D18A7A5C
:105600009AB14A888AB901280FD1087968B94879CE
:10561000784909688A690021904730B9D8F80010A4
:10562000754A98E00878400619D07249D8F8000009
:1056300009684078096988470446032840F090804B
:10564000D8F8000093E0032C14D0012C37D100F0DF
:10565000DFF833E00B2C32D100F0F6F92EE0887839
:10566000032847D0022849D00128DED161480068CC
:105670001C3046E000F0B0F920E0087800F07F0030
:10568000022841D0012856D00028CED18888002891
:10569000CBD15FE0C878012811D1888878B900F0B3
:1056A0008DF916E091F90300002810D4887870B9BC
:1056B000888860B9887A09E000F06AF948B14D48F5
:1056C000006841692046884703280ED008B10820A9
:1056D0000CE0306D4D49302207EA40000A8000217D
:1056E0002844C0F80310062000E00920D8F8001074
:1056F00008724FE0E5480068243002E0E3480068A3
:10570000203002683ABB90E74A7902F00F00140695
:1057100056F820304FF0300458BF4FF44054234225
:105720003FF483AF12F070027FF47FAFC54A127866
:1057300090420FD379E74879D44909688A690021F2
:10574000904700287FF471AFD8F80010887A0028BD
:105750003FF46BAF2A4A002400208A614C829047B4
:10576000D8F800004FF6FF72018A914201D1092159
:105770000FE0022C18BF002901D1082109E090F99F
:105780000020B2F1FF3F09DD1F494FF440520A806B
:1057900003210172BDE8FC41FFF792BCC28801926F
:1057A000019B8B4202D20199018212E0914210D2F8
:1057B000B64A126892F82C20914202D21149002276
:1057C00006E0B1FBF2F303FB121111B90D490122FE
:1057D0000A70AE49096891F82C108182FFF794F89D
:1057E000D8E700BF005C0040FEFF01000160004000
:1057F0004001002044010020F9580008C558000865
:105800001559000874010020680100206A01002079
:10581000B0B59D480068017801F07F01022906D0EB
:1058200059BB417A01F0DF0141720020B0BD4188CF
:1058300019BB017909BB4179814D824B01F07F048D
:1058400055F824201B789C4217D211F080014FF0AC
:10585000300308BF4FF440531A420ED0807A60B133
:1058600055F8240059B900F44050B0F5805F1FD1BD
:105870008CB12046FEF700FE10E00220B0BD00F023
:105880003000102814D12046FEF706FE20463021B5
:10589000FFF7D8FD0CE00A48FFF746FB55F8240057
:1058A00043F60F7108404BF28001484045F8240050
:1058B0007748006840698047B7E700BF005C004058
:1058C0005C00002080B538B17148006800688047EE
:1058D0006D4800680A3080BD6B48FFF74ABB00BFC7
:1058E000694A13685A8A10B108681044704788885A
:1058F000801A18820020704780B538B1644800686B
:1059000080688047604800680C3080BD5E48FFF7C3
:1059100030BB00BF10B5B0B11C4C002020805A48ED
:105920000068017801F07F01022912D0012926D0F8
:1059300069B9407A022101EA1011C0F380100844CD
:105940001249087017E050480221006801820024C3
:1059500015E090F905103A4A01F00F00B1F1FF3F50
:1059600052F820000DDD00F44050B0F5805F02D108
:1059700006480121017046480068006980472046BA
:1059800010BD00F030001028F2D0F4E7A80100208C
:1059900080B53D482B4A00685278C178914203D8BF
:1059A00082780AB982880AB1022080BD81723848A3
:1059B000006840688047002080BD00BF80B5324845
:1059C0000068417A41F02001417231480068C069A5
:1059D0008047002080BD00BF70B52B481849194E84
:1059E00030240368587910F0800200F07F0008BF6F
:1059F0004FF4405451F820503678B04201D25E88BE
:105A00000EB1022070BD2C40FBD09B7A002BF8D049
:105A100040F63F73002A08BF43F60F7351F8202069
:105A200002EA030248F2900308BF49F280035A4099
:105A300041F820201648006880698047002070BD2A
:105A4000005C00408C00002010B5104A0E4C12681B
:105A50002068C1784079926990470146022091B947
:105A600021688A7A7AB1087908B9887808B1022061
:105A700010BD07480068C06880472068C178427937
:105A8000C2720173002010BD4001002044010020BB
:105A900048010020B8B50023EB482B490093026869
:105AA000082B08D000EB830454F8404CA4B241F812
:105AB00023400133F4E742F480639BB203604FF666
:105AC000FE331A4002F20143036002F58063036073
:105AD00043685B05FCD54FF6FF3343600023082B7A
:105AE00008D051F8235000EB83040133ADB244F8E1
:105AF000405CF4E742F4816101230160016841F0F8
:105B0000040189B2016011490A6800920A6863F3CE
:105B100001020A600E4A136843F0040313604368ED
:105B2000DB0401D430BF09E04EF6FF734FF6F77483
:105B3000436003682340036000980860106820F009
:105B400004001060B8BD00BF780100200070004064
:105B500010ED00E0044904280A6822F0040208BF9E
:105B600004320A60704700BF10E000E0024801689C
:105B700001390160704700BFAC010020044842F2C7
:105B800028314180092101706FF00400FFF7E2BF66
:105B90002801002082B03648364A016841F00101F0
:105BA000016041681140344A416001681140016060
:105BB000016821F480210160416821F4FE01416007
:105BC0004FF41F018160002101910091016841F4AF
:105BD00080310160016801F40031009101990131C7
:105BE0000191009919B90199B1F5A06FF2D101683D
:105BF000890354BF0021012100910099012930D16E
:105C00001E490A6842F010020A600A6822F0030284
:105C10000A600A6842F002020A6041684160416815
:105C20004160416841F480614160416821F47C1128
:105C30004160416841F4E8114160016841F08071C0
:105C4000016001688901FCD5416821F003014160D0
:105C5000416841F002014160416801F00C010829EE
:105C6000FAD107484FF00061016002B0704700BFF1
:105C7000001002400000FFF8FFFFF6FE0020024087
:105C800008ED00E04FF48020FEF73ABF01460448DB
:105C900000294FF4004118BFFFF773B8FFF76FB842
:105CA00000080140054802215F4A0175044900F1DE
:105CB0000C03C0E9003281601068004740010020F9
:105CC000C4000020BCB54FF4A060FFF701F90B48F9
:105CD0000B4D019001AC2046A84701208DF807002C
:105CE0002A20FFF709F91720FFF706F92820FFF708
:105CF00003F940F20B20FFF7FFF8BCBD14010001CF
:105D0000814E000870B588B0454D464C4F4E686CCA
:105D10006080308861880140090402D5FEF70CFBE1
:105D2000308861880140490506D54FF6FF30686428
:105D30003D4840688047308861880140890444BFFD
:105D40004DF6FF71696461880140C90406D54EF6BD
:105D5000FF7068640020FFF719FA308861880140FD
:105D600009050CD53148007810B1FFF793FE02E029
:105D70000220FFF70BFA4FF2FF70686430886188E9
:105D80000140890505D54FF6FF516964217801313D
:105D9000217061880840C00522D54FF6FF60686415
:105DA000A86C000402D40020606016E06068013036
:105DB00060606068042810D3286C00070DD4286C3C
:105DC000002180B2A060684608290BD055F8212038
:105DD00092B240F821200131F6E70720FFF7D6F90B
:105DE00008B070BDA16841F00101A160A16889B24D
:105DF0002964A16821F00101A160A16889B2296428
:105E0000696C4905FCD54FF6FF316964002108290A
:105E1000C9D050F8212092B245F821200131F6E78F
:105E2000005C00402C0100205C000020E800002005
:105E3000FFF768BF044800214FF43F424160034927
:105E40000A80026000207047405C0040B4010020DE
:105E500070B500F07F050C462846FEF799FF064610
:105E60002846FEF791FF014620463246FFF718F913
:105E7000304670BD70B500F07F0614460D463046C2
:105E8000FEF78AFFA4B201462846224600F008F831
:105E900030462146FFF7CAFA002070BDFEE7000039
:105EA000064B0132520803EB41012AB130F8023BA4
:105EB000013A21F8043BF8E7704700BF006000405A
:105EC0000648BFF34F8F064A016801F4E0611143B1
:105ED0000160BFF34F8F00BFFDE700BF0CED00E096
:105EE0000400FA054FF000604FF48041FEF7FAFF1E
:105EF0004FF0C0500121FFF72BF9FFF73FFEFFF7EE
:105F0000CDFAFFF7FFFAFFF7CDFE094C2068052810
:105F10000CD00020FFF7B2F93220FEF74DFD002033
:105F2000FFF7A4F93220FEF747FDEFE7FEE700BFD9
:105F3000B001002002E008C8121F08C1002AFAD1EF
:105F400070477047002001E001C1121F002AFBD1F9
:105F50007047000004000000080000000800000076
:105F60004000000040000000200000002000000071
:105F7000200000000100008000020100020000017A
:105F80000040001006002800170006000700170058
:105F9000280028000100008000020100020000012A
:105FA0000040001000000F00090000000100080080
:105FB0000E000C00000001000100040004000300BA
:105FC0000300030009022900010100C03209040096
:105FD000000203000000092110010001229E0007B9
:105FE00005810302002007050103020020120100C1
:105FF0000200000040830450570002010203010622
:1060000000FF0901A10185800955150026FF0075D3
:10601000089501B1828501090115002501750895D2
:1060200001B18285010901918285020902150025CD
:106030000175089501B182850209029182850309E3
:10604000031500250175089501B1828503090391A7
:1060500082850409041500250175089501B1828522
:10606000040904918285050905150025017508813B
:106070008285050905B18285060906150025017589
:1060800008818285060906B1828507090715002661
:10609000FF007508818285070907B182C0040309E2
:1060A000042003530054004D00330032002000430D
:1060B000007500730074006D002000480049004422
:1060C000002603530054004D006900630072006F06
:1060D0000065006C0065006300740072006F006E64
:1060E000006900630073000004000000100000005D
:1060F00010000000100000000002800000010002FB
:10610000206100080000002028010000345F000822
:10611000486200082801002090040000445F000845
:1061200000080140000C0140000C01400018014033
:106130000018014000140140001401400014014007
:10614000C45F000829000000D65F000809000000B5
:10615000FF5F00089E0000001A03530054004D002A
:1061600033003200000000000000000000000000CA
:1061700000000000ED5F0008120000004147000829
:10618000BD4500089D4600083D470008C54400087D
:10619000994500088D450008394500082D4500083F
:1061A00071450008000000004000000002010000EE
:1061B00000080140001001400010014000100140A3
:1061C000010000009D60000804000000C16000089C
:1061D00026000000A1600008200000003800002018
:1061E0001A0000007D4E0008654600087D4E00083C
:1061F0007D4E00087D4E00087D4E00087D4E000853
:106200007D4E00088146000801000000E5490008B5
:106210007D4E00087D4E00087D4E00087D4E000832
:106220007D4E00087D4E0008ED4900087D4E0008B7
:106230007D4E00087D4E00087D4E00087D4E000812
:086240007D4E00080000000083
:04000005080040EDC2
:00000001FF
