:020000040800F2
:10400000C005002001410008FB510008455100088F
:10401000F9510008A54300086B600008000000008B
:1040200000000000000000000000000085560008AD
:10403000E54C000800000000C95300089D5D000821
:104040001B4100081B4100081B4100081B410008E0
:104050001B4100081B4100081B4100081B410008D0
:104060001B4100081B4100081B41000831480008A3
:104070001B4100081B4100081B4100081B410008B0
:104080001B4100081B4100081B4100081B410008A0
:10409000FD5F00081B4100081B4100082D4E000871
:1040A0001B4100081B4100081B4100081B41000880
:1040B0001B4100081B4100081B4100081B41000870
:1040C0001B4100081B4100081B4100081B41000860
:1040D0001B4100081B4100081B4100081B41000850
:1040E000C94D00081B410008FD5D0008DFF80CD039
:1040F00000F018F800480047B9600008C00500202B
:104100000648804706480047FEE7FEE7FEE7FEE771
:10411000FEE7FEE7FEE7FEE7FEE7FEE7AD5D00082F
:10412000ED400008064C074D06E0E06840F0010352
:1041300094E8070098471034AC42F6D3FFF7DAFF53
:10414000D0620008F062000870B58C1810F8015BAE
:1041500015F0070301D110F8013B2A1106D110F820
:10416000012B03E010F8016B01F8016B5B1EF9D124
:104170002B0705D40023521E0DD401F8013BFAE7AA
:1041800010F8013BCB1A921C03E013F8015B01F815
:10419000015B521EF9D5A142D8D3002070BD002981
:1041A000816802D041F0010101E021F0010181604C
:1041B0007047000070B5012190B0084601F048F941
:1041C0000121480201F05CF92A4E304600F078FBEC
:1041D00029480090294801A90024012581E83100DF
:1041E00028020494CDE90540800007902020089023
:1041F0000002CDE909046946304600F0DBFB0121ED
:10420000304600F051FB01220221304600F0CAFB8B
:104210008DF830500B948DF831504FF46020CDE97B
:104220000D04154C8DF83C504C3C0BA9204600F079
:104230003FF8052301220821204600F05DF8012106
:10424000204600F01DF801212046FFF7A8FF204678
:1042500000F08CF8204600F024F80028FAD120461F
:1042600000F093F8204600F015F80028FAD110B0BD
:1042700070BD0000080002404C24014000000020F6
:104280000029816802D041F4807101E021F480713D
:1042900081607047014600208968490700D50120E8
:1042A0007047014600208968090700D50120704742
:1042B00010B542680E4B0C791A400B6842EA042292
:1042C0001343436083680B4A1340D1E902422243FF
:1042D0004C7943EA44031A438260C26A097C22F49F
:1042E0007002491EC9B242EA0151C16210BD00000C
:1042F000FFFEF0FFFDF7F1FF70B5072409290AD989
:10430000C568A1F10A0606EB4606B440A543B340D2
:104310001D43C56007E0056901EB4106B440A543B4
:10432000B3401D4305611F23072A09D2446B521E67
:1043300002EB820293409C4391400C43446370BD66
:104340000D2A09D2046BD21F02EB820293409C43D8
:1043500091400C43046370BDC46A0D3A02EB8202C3
:1043600093409C4391400C43C46270BD816841F00E
:104370000801816070470029816802D041F4A001E2
:1043800001E021F4A00181607047816841F00401DF
:104390008160704708B5024A10440090016008BD72
:1043A000006C0040FEE7C1B2000A40EA01207047FD
:1043B0002DE9F84F0020ADF80000DFF834A14BF6EE
:1043C000BF7648F280074A4D4A4C40F68F7848F64F
:1043D0000F7BDFF824910AF1440A31E00888474A4C
:1043E00010F00F00107034D0454901EB8001D1F876
:1043F000002CADF80020BDF8002012040BD5D1F838
:10440000002C02EA0802C1F8002C3E4901EB8000B2
:1044100050F8040C8047BDF80000000610D537485E
:104420003749007801EB8001D1F8002C02EA0B0239
:10443000C1F8002C344901EB800050F8040C80478F
:10444000DAF800004946A9F800000004C6D4BDE827
:10445000F88F28682080208800F030006080208855
:1044600000F4405020802868304080F4005080F0F4
:104470002000384328600888C006286815D400EA60
:104480000B00286000F060FE26E02188890401D539
:1044900080F400506188C90626D46188890601D558
:1044A00080F0200038432860D1E7ADF80000BDF867
:1044B0000000000506D5286800EA0800286001F021
:1044C00043FA09E0BDF800000004B9D5286800EA05
:1044D0000800286000F044FF286821883040C904A3
:1044E000D3D580F48050D0E780F01000D5E70000ED
:1044F000005C0040320100202E000020220100203C
:10450000005000405400002038000020810008487E
:104510000844D0F8001C490409D5D0F8001C48F61E
:104520008F7211404CF280021143C0F8001C70479A
:1045300000500040810008480844D0F8001C49069B
:1045400009D5D0F8001C48F68F72114048F2C0021D
:104550001143C0F8001C704700500040810006481D
:104560000144D1F8000C48F68F62104048F28002F6
:104570001043C1F8000C704700500040174910B5B7
:104580000A68918841BB062804D1117801F07F01A7
:10459000012905D0117801F07F0121290AD01BE003
:1045A0009078222802D0212802D015E00C490CE096
:1045B0000C490AE0032802D009280DD101E00A497C
:1045C00003E00B4B09490920187029B100209161C3
:1045D00050828847002010BD022010BD2401002019
:1045E000354600080D4600081946000889470008AE
:1045F00070000020014901F06DBA00008000002029
:10460000014901F067BA000078000020014901F07B
:1046100061BA00009000002008B1044870470449C6
:104620000120096808820020704700007400002003
:1046300024010020014901F04DBA0000880000204B
:1046400005490968C978042901D900207047034A3F
:1046500002EBC10101F03EBA24010020C800002095
:1046600009B9002800D002207047000006490968F7
:10467000097801F07F01212901D10B2801D0022006
:10468000704700F075B8000024010020274810B5DD
:10469000006800218172C1722549C97941720020E8
:1046A00000F0F2FF4FF40071002001F0BBF8102180
:1046B000002001F08DF81821002001F011F8582198
:1046C000002001F067F80020FFF748FF194890F834
:1046D0002C10002001F014F8002001F049F84FF4EC
:1046E000C061012001F09EF84FF48071012001F0BB
:1046F00051F84FF48271012000F0F2FF02210120F5
:1047000001F058F80221012000F0FAFF4FF4405167
:10471000012001F015F82021012001F059F80020B6
:1047200000F0BAFF04490120086010BD24010020F8
:10473000166100089800002010010020064800685B
:10474000807A002806D00549052008600121044828
:10475000FFF711BE70470000240100201001002067
:104760000024014001490420086070471001002026
:10477000034804490068C078486000207047000082
:10478000240100207000002008B10448704704494B
:104790000220096808820020704700007100002094
:1047A00024010020174910B5487800B1012009788C
:1047B00001290FD0022910D0032913D0042916D0C3
:1047C000002000F0E9FE012000F0E6FE022000F0EB
:1047D000E3FE12E090B100200BE000284FF0010052
:1047E00007D10BE000284FF0020002D106E020B113
:1047F0000320BDE8104000F0DBBE0320BDE8104000
:1048000000F0CABE710000207047000010B500F033
:104810007FFC054800240068847200F0F9FD01F077
:10482000EFFB0248046010BD2401002010010020AD
:1048300070B5124907200870114C124D20682B6882
:104840000209A2EB1312042A13D90F4E327882B157
:104850000E4A1268052A0CD10009487002228120F4
:1048600001F0F0FB012000F0CBFF20682860002061
:104870003070BDE87040022000F00AB8200100202E
:10488000000000200400002008000020100100208B
:10489000C10002D50249086070470249486070476C
:1048A00004040240000002400029016802D041F0E7
:1048B000010102E04FF6FE721140016070470000F6
:1048C00001684FF6FE7211400160002101604160F5
:1048D0008160C1603149314A0839904203D148684A
:1048E00040F00F0006E02D4A1432904204D148688F
:1048F00040F0F00048607047284A2832904203D1C7
:10490000486840F47060F5E7244A3C32904203D195
:10491000486840F47040EDE7204A5032904203D19D
:10492000486840F47020E5E71C4A6432904203D1A5
:10493000486840F47000DDE7184A7832904203D1AD
:10494000486840F07060D5E7154A111F904203D1C6
:10495000086840F00F0006E0114A1432904204D17A
:10496000086840F0F000086070470D4A2832904215
:1049700003D1086840F47060F5E7094A3C32904280
:1049800003D1086840F47040EDE7054A5032904288
:10499000EAD1086840F47020E5E700000800024012
:1049A00008040240002A026801D00A4300E08A435A
:1049B0000260704730B5036847F6F07293430C6AA3
:1049C0008A682243D1E904452C4322438C6922435F
:1049D000CC6922434C6A22438C6A22431A43026008
:1049E000CA6842600A6882604968C16030BD0000E0
:1049F0002DE9F047DFF89480254F4FF03009D8F8C3
:104A0000001001F11005088A0E7A08B9042E04D0AE
:104A1000AC88A04215D8042614E01E48017801296C
:104A200003D00726102038802BE01B4A0021126893
:104A30001A4B120403EBD2325160A7F800900170B8
:104A40001FE00226844200D90446A9682046884710
:104A50008246002000F04EFB01462246504601F0FF
:104A600005FB2146002000F0A5FE2888001B2880B9
:104A7000688820446880A7F8009009494FF44050A6
:104A80000880D8F800000672BDE8F08724010020F5
:104A90003401002036010020505C004000600040DE
:104AA000320100202DE9F047224EDFF88C803027BC
:104AB000356835F8100FA968A9B100B3AC888442F5
:104AC00000D904462046884781462888001B288054
:104AD000688820446880002000F0ECFA01462246F5
:104AE000484600F061FC288848B114494FF4405012
:104AF00008800021084600F05DFEA8F800702888B4
:104B0000A988884201D3032001E020B10520316843
:104B10000872BDE8F0873168062008720849002055
:104B20000968084A090402EBD1314860A8F800700E
:104B3000EFE70000240100203401002032010020B2
:104B4000505C004000600040F8B55D4C5D4D0926AA
:104B50002068002729684278062A05D0AAB1082AC9
:104B60004DD00A2A50D06BE00278520668D1807886
:104B7000012804D0022804D0032804D060E0C969C9
:104B800056E0096A54E0496A52E04288B2BBC288E2
:104B9000022A55D102798ABB0278530601D1838853
:104BA00033B102F07F02012A04D0022A0CD047E080
:104BB00045493DE08A69407900219047F0B9206875
:104BC000807A0028F4D13BE0417901F00F0001F038
:104BD00070020B063D4901EB8001D1F8001C03D5A2
:104BE000C1F30111090102E0C1F301310903384B9E
:104BF0001B78834224D90AB90029D9D120E0007852
:104C000040061DD1334913E0027802F07F02012AE9
:104C100016D1827AA2B1428892B9027982B9C28849
:104C2000012A0DD18A6940790021904740B92A496B
:104C300031B120684782816100208847002006E06A
:104C400029682068096940788847032813D02168BB
:104C50000A8AA2F57F43FF3B0BD002280ED06AB12F
:104C60000878000626D5C888009082420AD90882B2
:104C700018E00E72F8BD20680672F8BD4FF008000B
:104C80000872F8BD0ED22868144B90F82C008242AE
:104C900001D21F7006E0B2FBF0F400FB142008B94B
:104CA00001201870286890F82C008882BDE8F84030
:104CB000FFF79EBE03200872094900030880F8BD73
:104CC0002401002028010020195B0008005000404A
:104CD000E8000020AD5A0008F15A00083601002013
:104CE000320100207047000001B5054900980860B6
:104CF000009801E0401E00900028FBD108BD000094
:104D00000C000020014901200870704708000020B5
:104D100010B52949012001F083F92749487800B1ED
:104D20000120097801290FD0022910D003292ED0A3
:104D3000042931D0002000F02FFC012000F02CFCD1
:104D4000022000F029FC2CE000B3002026E0E0B1B6
:104D50001A4C206840F48070206045F65A210420E7
:104D6000FFF718FB206820F480702060012080F39A
:104D70001388BFF34F8F12480168124A01F4E061B3
:104D800011430160BFF34F8FFEE701200AE00028C6
:104D90004FF0020002D105E018B1032000F008FC3A
:104DA00002E0032000F0F8FBBDE810404FF4405152
:104DB000012000F0C5BC00002A0000200070004067
:104DC0000CED00E00400FA052DE9F0414FF4004736
:104DD000384600F095F8002820D0114D2878A8B169
:104DE00010480068052811D10F4C062020700120C2
:104DF00000F0EAFB002670B1667002220A498120A9
:104E000001F020F9012000F0FBFC2E703846BDE8CF
:104E1000F04100F03DB801206070EEE7BDE8F081A0
:104E20000800002010010020200100202DE9F041A1
:104E30004FF40077384600F063F800281FD0114D7A
:104E40002878A0B110480068052810D10F4C2070B8
:104E5000022000F0B9FB002670B1667002220B49F7
:104E6000812001F0EFF8012000F0CAFC2E703846D6
:104E7000BDE8F04100F00CB801206070EEE7BDE83D
:104E8000F081000008000020100100202001002017
:104E90000149086070470000140401402DE9FC41FD
:104EA00000268DF8046010274FF400758DF805700A
:104EB000012400958DF80640684600F031F8284638
:104EC000FFF7E6FF8DF80460E5038DF805700095A7
:104ED0008DF80640684600F023F82846FFF7D8FF13
:104EE000A5042846FFF7D4FF08208DF8050000959B
:104EF0008DF80640684600F013F8BDE8FC8100001C
:104F0000064A014600201268044B0A4014331B680D
:104F10000B4202D0002A00D001207047000401405B
:104F200030B51A498379026853B30B6893430B6019
:104F30000A1D13680468A343136002790A441368C6
:104F4000046823431360114A083213680468A343BA
:104F50001360131D1C680568AC431C604479102C59
:104F600005D021440A68006802430A6030BD116818
:104F7000046821431160196800680143196030BD5D
:104F80000079084401689143016030BD000401408C
:104F900008B501210C2000F073FA4FF40040ADF881
:104FA000000003208DF8020014208DF803006946EC
:104FB000064800F023F80120ADF8000000208DF82D
:104FC00003006946024800F019F808BD00080140D6
:104FD000000C014010B58A0721F003040649130FA5
:104FE00021440F228C689A4094438C608A689840D0
:104FF00002438A6010BD000000000140F0B5CA788D
:10500000002502F00F03D20601D58A7813430A78EF
:105010004FF00F0E12F0FF0F4FF001021CD004688A
:105020000F8802FA05F63740B74211D14FEA850CD6
:105030000EFA0CF724EA070703FA0CF43C43CF7886
:10504000282F02D0482F02D002E0466100E006611E
:105050006D1C082DE4D304600C88FF2C1ED9446815
:105060005FF0000606F1080702FA07F50F882F40E7
:10507000AF420FD14FEA860C0EFA0CF7BC4303FA8D
:105080000CF73C43CF78282F00D14561CF78482FCB
:1050900000D10561761C082EE4D34460F0BD0246C1
:1050A000002092680A4200D0012070474161704799
:1050B000016170470549096889B201EBC0000449E4
:1050C00001EB4000008980B270470000505C004056
:1050D000006000400549096889B201EBC00004493D
:1050E00001EB40008089C0F309007047505C00402C
:1050F000006000400449096889B201EBC00003491F
:1051000031F8100080B27047505C004000600040F1
:105110000A4810B50168001D0468001D00680818E1
:105120000BD00822064900F03DF80549204604222C
:10513000BDE81040103100F035B810BDE8F7FF1F92
:1051400012000020FEE7000010B5134C2068017A21
:10515000022904D0042902D0062905D015E0FFF762
:1051600047FC2068007A11E04178052909D10178CF
:10517000490606D1C07800F08FFA08480068006A36
:1051800080470748006880688047082021680872C7
:10519000BDE8104000F01AB9240100202C010020C5
:1051A00028010020F0B500230A24302537261F46A9
:1051B00011E000BFB4EB107F02D905EB107C01E0D9
:1051C00006EB107C01F813C001EB430C00015B1CE3
:1051D0008CF80170DBB29342ECD3F0BD0448817AC5
:1051E000044809B1052100E00121016000F0DEBDA5
:1051F000A401002010010020FEE770477047000066
:1052000070B50F23C47801780122F4B1144C2468DE
:10521000457804F4E064C4F5E064240AC4F10406AB
:10522000E3408478B5401C402C4301F1E021230188
:1052300081F80034007800F01F018A4040098000A6
:1052400000F1E020C0F8002170BD01F01F00824095
:105250004809800000F1E020C0F8802170BD000006
:105260000CED00E002490843024908607047000065
:105270000000FA050CED00E0024A1140014302482B
:105280000160704780FFFF1F08ED00E070B52F4DF3
:105290002868017844784A0606D001F07F0001288A
:1052A00028D002282BD035E0092C06D0052C07D0B9
:1052B000032C0ED0012C14D02CE000F077FC28E059
:1052C000C1787F292ED8817861BB818851BB807AD3
:1052D00027E0C17801291DD18088D8B900F082FC6F
:1052E00017E0C178012915D1818899B9407A8006E3
:1052F0000AD40FE00B2C0DD100F0CAFC09E0012C00
:1053000002D0032C03D005E000F052FB01E000F0D6
:105310007BFC58B10E492046096849698847032833
:1053200002D018B108200DE009200BE0094A062040
:1053300000211268084B120403EBD2325160074A75
:10534000302111802968087270BD000024010020FE
:1053500028010020505C0040006000403401002023
:1053600010B50F4C2068007A022811D004280FD005
:10537000032804D0052802D0072805D008E0FFF74D
:1053800091FB2068007A04E006480068C068804706
:10539000082021680872BDE8104000F017B800002E
:1053A0002401002028010020064B521C520803EB68
:1053B000410105D031F8043B20F8023B521EF9D1DF
:1053C0007047000000600040704700000C4810B5B6
:1053D00090F82C10002000F093F90A480068007A39
:1053E000082802D0092809D006E007494FF4805068
:1053F0000880064910200880002010BD012010BD43
:1054000098000020240100203201002034010020F7
:1054100010B5012000F0F6FC0648012101600021D2
:10542000054A0160031D19604FF4E05111800160CD
:10543000002010BD405C004030010020034A51684C
:1054400021F44041014351607047000000100240C8
:10545000044A0029516901D0014300E081435161B0
:105460007047000000100240044A0029D16901D0B1
:10547000014300E08143D161704700000010024009
:10548000044A0029916901D0014300E08143916100
:1054900070470000001002400149C1F8D800704771
:1054A000000042422DE9F041214C072800D0207035
:1054B00022781F4D0627052104261E48062A0BD2F6
:1054C000DFE802F0030C11161E27686810B1217086
:1054D000BDE8F08100F030F82770F9E700F02CF813
:1054E0002670012022E00220607003202070EFE788
:1054F0006078401E607060780028E9D12670E7E788
:10550000026892B242F01002026021700A206070BC
:10551000DEE76178491E617061780029D8D10168A1
:1055200089B221F010010160277000206860CFE788
:1055300018010020405C004010B5064C206880B285
:1055400020F004002060FFF749FE4FF43F40206048
:1055500010BD0000405C004038B504460C480121F5
:1055600050F82400FFF78CFF09486946203830F8CE
:105570001400ADF8000010208DF8030003208DF812
:105580000200044850F82400FFF738FD38BD000041
:1055900050620008540100200349044A31F81010F9
:1055A00052F8200041617047306200085401002029
:1055B0000349044A31F8101052F820000161704785
:1055C00030620008540100200349044A31F81010E9
:1055D00052F82000FFF763BD6062000864010020FC
:1055E0007FB5044625480D46012150F8240040F0BF
:1055F0000100FFF745FF2CB35FF048008DF80F0066
:105600001E4803A9103830F81400ADF80C001C48EF
:1056100050F82400FFF7F2FC012D2ED1174840303E
:1056200010F81410103810F81400FFF7D3FC1348CA
:10563000203030F81400009000208DF804001CB1D8
:105640000C2002E02820D9E708208DF8050001256C
:105650008DF806506846FFF763FC0848503010F894
:1056600014008DF808000F208DF809008DF80A004D
:105670008DF80B5002A8FFF7C3FD7FBD70620008D4
:105680006401002070470000024920F00700086014
:1056900070470000505C0040F0B50E490E4D48F6D2
:1056A0008F770B78002148F2800C0BE0CEB205EB2F
:1056B0008604D4F8002C3A40324342EA0C02C4F883
:1056C000002C491C9942F1D3044940F08000086045
:1056D000F0BD0000E8000020005000404C5C00409D
:1056E000054A21F00101126892B202EBC000034AA0
:1056F00002EB400081607047505C00400060004059
:105700000D4A12683E2992B202EBC0000B4A02EB2E
:10571000400209D94809C90601D1401E80B24FF4A0
:10572000004141EA802004E04808C90700D0401C3D
:105730008002106070470000505C00400C60004028
:1057400082000A480244D2F8000C4BF68F731840CE
:10575000CB0401D580F48050890401D580F4005039
:1057600048F280010843C2F8000C70470050004026
:10577000810007480144D1F8000C4BF68F721040AD
:1057800080F4405048F280021043C1F8000C70478A
:1057900000500040054A21F00101126892B202EB6C
:1057A000C000034A42F8101070470000505C0040EF
:1057B00000600040044A126892B202EBC000034A43
:1057C00002EB400041607047505C004000600040C8
:1057D00082000A480244D2F8000C48F6BF73184011
:1057E000CB0601D580F01000890601D580F020009D
:1057F00048F280010843C2F8000C70470050004096
:10580000810007480144D1F8000C48F6BF721040EF
:1058100080F0300048F280021043C1F8000C70475D
:1058200000500040820005480244D2F8000C48F6BF
:105830008F1318400843C2F8000C70470050004016
:105840000CB50021264801910091026842F4803293
:1058500002604FF4A063026802F400320092019AE1
:10586000521C0192009A12B9019A9A42F3D102682D
:10587000920333D5012100911A490A6842F01002BF
:105880000A600A6822F003020A600A6842F0020213
:105890000A604168416041684160416841F480614B
:1058A0004160416821F47C114160416841F4E81194
:1058B0004160016841F08071016001688901FCD597
:1058C000416821F003014160416841F002014160FB
:1058D0004168C1F381010229FAD10CBD00910CBDD0
:1058E000001002400020024010B501210420FFF703
:1058F000C7FD4FF44040FFF7A1FDFFF749FB012131
:105900000220FFF76DFE01210846FFF769FEFFF751
:10591000C5FA0020FFF720FE0120FFF71DFE022040
:10592000FFF71AFE0320FFF717FEBDE81040FEF751
:1059300041BC10B50020FFF7AFFD0121BDE81040CC
:10594000C805FFF791BD000070B516480068174DF7
:105950000004C10B14480144098989B200EB4104D9
:105960002868017A09290FD0217801706178417087
:10597000A088FEF718FD296848802089FEF713FDEE
:1059800029688880A089C880286801210172C088A0
:1059900028B1FFF7D9F8BDE87040FFF717BDFFF752
:1059A00075FCF8E7505C00400060004024010020D6
:1059B0002DE9F04138480068017811F07F0102D0EC
:1059C000022905D066E0417A01F0DF0141724EE024
:1059D000418800295ED10179F1BB4179304D21F038
:1059E00080040A0605EB84022C4BD2F8002C03D568
:1059F000C2F30112120102E0C2F3013212031E7857
:105A00002346A64246D93AB3807A28B308064FEA1D
:105A100084000ED52844D0F8000CC0F301100128F2
:105A200021D11846FEF786FD20463021FFF7D0FE33
:105A300019E04619D6F8000CC0F30130012812D144
:105A40004BF68F7748F28008A4B11846FEF75EFD4A
:105A5000D6F8000C384000E01CE080F4405040EAEA
:105A60000800C6F8000C0F48006840698047002015
:105A7000BDE8F0810C4890F82C100020FFF740FEA4
:105A8000D5F8000C384080F4405040EA0800C5F8D2
:105A9000000CE8E70220EBE724010020E8000020EA
:105AA000005000402C0100209800002010B5074C49
:105AB00030B1074800680068804720680A3010BD90
:105AC000216801200882002010BD00002401002070
:105AD0002C010020054A13685A8A10B10868104446
:105AE00070478888801A188200207047240100209F
:105AF00010B5074C30B107480068806880472068BF
:105B00000C3010BD216801200882002010BD00006B
:105B1000240100202C010020204910B5096860B143
:105B20001F48002202800A7853060AD002F07F0242
:105B3000012A16D0022A16D001E002200882002095
:105B400010BD497A8A06027802D542F0020201E0CD
:105B500002F0FD0249060270D1B211D401F0FE013B
:105B600010E00F4810BD4A79110713060D4A02EBE9
:105B70009161D1F8001C07D5C1F3011106E001784D
:105B800041F00101017003E0C1F301310129F6D0B8
:105B90000548006800698047E3E700002401002011
:105BA00038010020005000402C0100200A4810B5A8
:105BB00000680A4AC1785278914203D882780AB9BB
:105BC00082880AB1022010BD8172054800684068D1
:105BD0008047002010BD000024010020E8000020C4
:105BE0002C010020064810B50068417A41F02001E0
:105BF000417204480068C0698047002010BD000061
:105C0000240100202C01002070B51D481D4D0368A3
:105C1000597921F0800005EB80000C06D0F8004C8B
:105C200021F0800203D5C4F30114240102E0C4F37F
:105C300001342403144D2D78954210D95A8872B935
:105C40006CB19A7A5AB10906D0F8001C48F2800269
:105C500007D548F6BF73194081F0100106E0022015
:105C600070BD4BF68F73194081F480511143C0F819
:105C7000001C0648006880698047002070BD000055
:105C80002401002000500040E80000202C010020EA
:105C900010B50E4C0E4A20681268C178926940799E
:105CA000904721688A7A22B118B9087908B98878AA
:105CB00008B1022010BD07480068C068804720680E
:105CC0004179C172C1780173002010BD2401002008
:105CD000280100202C010020F8B52B49002000905D
:105CE0000A682A4B2A4C92B203EB8005D5F8005C77
:105CF000ADB244F82050401C0828F5D342F480602F
:105D0000086040F00100086020F001050D601E4AA7
:105D1000121D10684005FCD54FF6FF3010600020C2
:105D200054F8206003EB8007B6B2C7F8006C401C43
:105D30000828F5D345F008000860086880B240F0F4
:105D400004000860134B18680090186820F00300E6
:105D500040F0010018601048046844F00404046036
:105D60001468E40401D430BF09E04EF6FF741460F7
:105D70000A6892B222F008020A600099196001686C
:105D800021F004010160F8BD405C0040005000407B
:105D9000840100200070004010ED00E0024801681E
:105DA000491E0160704700000C0000200F4810B52C
:105DB000016841F00101016041680D4A11404160F4
:105DC00001680C4A11400160016821F480210160E2
:105DD000416821F4FE0141604FF41F018160FFF72B
:105DE0002FFD05494FF00060086010BD0010024013
:105DF0000000FFF8FFFFF6FE08ED00E04FF4802002
:105E0000FFF746B8044A00284FF40041104601D07D
:105E1000FFF74CB9FFF74CB90008014006480549A7
:105E2000022201600A72064A0449C0E901120868A8
:105E300000470000A4010020240100209800002059
:105E4000EC00002038B54FF4A060FFF70BFA1420E7
:105E50008DF8000001258DF8015000248DF80240D6
:105E60008DF803506846FFF7CBF92A208DF8000023
:105E70008DF801408DF803506846FFF7C1F91720EF
:105E80008DF800008DF801406846FFF7B9F9282029
:105E90008DF800008DF801406846FFF7B1F90B203E
:105EA0008DF8000002208DF801006846FFF7A8F980
:105EB00038BD00002DE9F0414A4E88B0002430681A
:105EC000494D68806888494F39880840000401D5E9
:105ED000FEF76EFA688839884FF6FF3808404005AB
:105EE00004D5C6F8008042484068804769883888F1
:105EF0000140890402D54DF6FF7131606988014087
:105F0000C80405D54EF6FF7030600020FFF7CAFACE
:105F100068883988084000050BD53648007810B1EC
:105F2000FFF7DAFE02E00220FFF7BCFA4FF2FF7043
:105F30003060698838880140890505D54FF6FF51E2
:105F400031602978491C297069880140C80545D508
:105F50004FF6FF6030602348001D00684FF00001DD
:105F6000000437D56868401C68606868032832D927
:105F70001C48001F026812072DD4026892B2AA6062
:105F80001D4A6B4602EB8407D7F8007CBFB243F88A
:105F90002470641C082CF5D3AC6844F00104AC6098
:105FA000AC68A4B20460AC6824F00104AC60AC68D6
:105FB000A4B2046030684005FCD5C6F8008000201B
:105FC00053F8204002EB8006A4B2C6F8004C401CF7
:105FD0000828F5D369600720FFF764FA08B0BDE828
:105FE000F0810000445C00402C00002030010020C3
:105FF000980000201401002000500040FFF75ABF15
:1060000005490020086005494FF43F4008800249D7
:10601000091F086000207047445C004030010020E8
:1060200070B500F07F060D463046FFF753F8044682
:106030003046FFF73FF8014622462846FFF7B4F9FD
:10604000204670BD70B500F07F0514460E46284608
:10605000FFF750F80146A2B2304600F007F8A1B2AF
:106060002846FFF7A7FB002070BDFEE7094B10B5DF
:10607000521C520803EB41010AD000BF10F8013B4B
:10608000521E10F8014B43EA042321F8043BF5D1DA
:1060900010BD00000060004002E008C8121F08C1E7
:1060A000002AFAD170477047002001E001C1121F99
:1060B000002AFBD1704700004FF4804106244803BA
:1060C000FFF7DAF80121A006FFF7CEF9FFF70CFC85
:1060D0000B4D0BE00020FFF76BFA2846FEF704FE9D
:1060E0000020FFF759FA2846FEF7FEFD641EE4B2D1
:1060F000F0D2FFF7A7FEFFF71CFCFFF78FFEFEE7CD
:1061000020A1070012010002000000408304505744
:1061100000020102030109022900010100C0320945
:106120000400000203000000092110010001229E6A
:106130000007058103020020070501030200200675
:1061400000FF0901A10185800955150026FF007592
:10615000089501B182850109011500250175089591
:1061600001B182850109019182850209021500258C
:106170000175089501B182850209029182850309A2
:10618000031500250175089501B182850309039166
:1061900082850409041500250175089501B18285E1
:1061A00004090491828505090515002501750881FA
:1061B0008285050905B18285060906150025017548
:1061C00008818285060906B1828507090715002620
:1061D000FF007508818285070907B182C0040309A1
:1061E000042603530054004D006900630072006FE1
:1061F0000065006C0065006300740072006F006E43
:10620000006900630073002003530054004D003305
:10621000003200200043007500730074006D002000
:106220000048004900440000000220000004400033
:106230000002800000010002004000000000020097
:106240000400000020000000040000002000000006
:10625000040000001000000010000000100000000A
:106260000100008000020100020000010040001057
:1062700004000000080000000800000040000000CA
:10628000400000002000000020000000200000006E
:106290000100008000020100020000010040001027
:1062A00000000100010004000400030003000300DB
:1062B00000000F0009000000010008000E000C00A3
:1062C0000600280017000600070017002800280015
:1062D000F06200080000002084010000484100082E
:1062E00090630008840100203C040000A8600008BE
:1062F000817201141A03531254124D1233021D32CB
:1063000013054D0C1408FD51040A19111C811304C6
:10631000613308121A160832291A3F08329E1A28C9
:10632000083209130D4814088D461C08A54710199A
:106330000C137D451B086D101A61041A01041AF52F
:10634000101A41084132401ADD3832041AE108328D
:1063500026130762330820221033201A1A02E1297B
:10636000801A3D5009169C1A651C41192B012614F0
:106370003801401A447F1A08081A1404A9089A1010
:106380000429105A0C045A18042928590400000042
:04000005080040EDC2
:00000001FF
